{
  "contractName": "ImmlaIco",
  "abi": [
    {
      "constant": true,
      "inputs": [],
      "name": "defaultIcoStart",
      "outputs": [
        {
          "name": "",
          "type": "uint256"
        }
      ],
      "payable": false,
      "stateMutability": "view",
      "type": "function"
    },
    {
      "constant": true,
      "inputs": [],
      "name": "soldTokensOnPreIco",
      "outputs": [
        {
          "name": "",
          "type": "uint256"
        }
      ],
      "payable": false,
      "stateMutability": "view",
      "type": "function"
    },
    {
      "constant": true,
      "inputs": [],
      "name": "importedTokens",
      "outputs": [
        {
          "name": "",
          "type": "uint256"
        }
      ],
      "payable": false,
      "stateMutability": "view",
      "type": "function"
    },
    {
      "constant": false,
      "inputs": [
        {
          "name": "_from",
          "type": "address"
        },
        {
          "name": "_value",
          "type": "uint256"
        }
      ],
      "name": "burnTokens",
      "outputs": [],
      "payable": false,
      "stateMutability": "nonpayable",
      "type": "function"
    },
    {
      "constant": true,
      "inputs": [],
      "name": "founder1",
      "outputs": [
        {
          "name": "",
          "type": "address"
        }
      ],
      "payable": false,
      "stateMutability": "view",
      "type": "function"
    },
    {
      "constant": true,
      "inputs": [],
      "name": "initialized",
      "outputs": [
        {
          "name": "",
          "type": "bool"
        }
      ],
      "payable": false,
      "stateMutability": "view",
      "type": "function"
    },
    {
      "constant": true,
      "inputs": [
        {
          "name": "",
          "type": "address"
        }
      ],
      "name": "balances",
      "outputs": [
        {
          "name": "",
          "type": "uint256"
        }
      ],
      "payable": false,
      "stateMutability": "view",
      "type": "function"
    },
    {
      "constant": false,
      "inputs": [],
      "name": "sendTokensToFounders",
      "outputs": [],
      "payable": false,
      "stateMutability": "nonpayable",
      "type": "function"
    },
    {
      "constant": true,
      "inputs": [],
      "name": "migrated",
      "outputs": [
        {
          "name": "",
          "type": "bool"
        }
      ],
      "payable": false,
      "stateMutability": "view",
      "type": "function"
    },
    {
      "constant": true,
      "inputs": [],
      "name": "icoManager",
      "outputs": [
        {
          "name": "",
          "type": "address"
        }
      ],
      "payable": false,
      "stateMutability": "view",
      "type": "function"
    },
    {
      "constant": true,
      "inputs": [],
      "name": "icoDeadline",
      "outputs": [
        {
          "name": "",
          "type": "uint256"
        }
      ],
      "payable": false,
      "stateMutability": "view",
      "type": "function"
    },
    {
      "constant": true,
      "inputs": [],
      "name": "maxIcoTokenLimit",
      "outputs": [
        {
          "name": "",
          "type": "uint256"
        }
      ],
      "payable": false,
      "stateMutability": "view",
      "type": "function"
    },
    {
      "constant": true,
      "inputs": [],
      "name": "preIcoToken",
      "outputs": [
        {
          "name": "",
          "type": "address"
        }
      ],
      "payable": false,
      "stateMutability": "view",
      "type": "function"
    },
    {
      "constant": true,
      "inputs": [],
      "name": "tokenImporter",
      "outputs": [
        {
          "name": "",
          "type": "address"
        }
      ],
      "payable": false,
      "stateMutability": "view",
      "type": "function"
    },
    {
      "constant": true,
      "inputs": [],
      "name": "sentTokensToFounders",
      "outputs": [
        {
          "name": "",
          "type": "bool"
        }
      ],
      "payable": false,
      "stateMutability": "view",
      "type": "function"
    },
    {
      "constant": false,
      "inputs": [],
      "name": "withdrawEther",
      "outputs": [],
      "payable": false,
      "stateMutability": "nonpayable",
      "type": "function"
    },
    {
      "constant": true,
      "inputs": [],
      "name": "bountyOwnersTokens",
      "outputs": [
        {
          "name": "",
          "type": "uint256"
        }
      ],
      "payable": false,
      "stateMutability": "view",
      "type": "function"
    },
    {
      "constant": false,
      "inputs": [],
      "name": "stopIco",
      "outputs": [],
      "payable": false,
      "stateMutability": "nonpayable",
      "type": "function"
    },
    {
      "constant": true,
      "inputs": [],
      "name": "foundersRewardTime",
      "outputs": [
        {
          "name": "",
          "type": "uint256"
        }
      ],
      "payable": false,
      "stateMutability": "view",
      "type": "function"
    },
    {
      "constant": false,
      "inputs": [
        {
          "name": "_account",
          "type": "address"
        }
      ],
      "name": "returnFundsFor",
      "outputs": [],
      "payable": false,
      "stateMutability": "nonpayable",
      "type": "function"
    },
    {
      "constant": true,
      "inputs": [],
      "name": "founder2",
      "outputs": [
        {
          "name": "",
          "type": "address"
        }
      ],
      "payable": false,
      "stateMutability": "view",
      "type": "function"
    },
    {
      "constant": true,
      "inputs": [],
      "name": "immlaToken",
      "outputs": [
        {
          "name": "",
          "type": "address"
        }
      ],
      "payable": false,
      "stateMutability": "view",
      "type": "function"
    },
    {
      "constant": true,
      "inputs": [],
      "name": "icoStart",
      "outputs": [
        {
          "name": "",
          "type": "uint256"
        }
      ],
      "payable": false,
      "stateMutability": "view",
      "type": "function"
    },
    {
      "constant": true,
      "inputs": [],
      "name": "team",
      "outputs": [
        {
          "name": "",
          "type": "address"
        }
      ],
      "payable": false,
      "stateMutability": "view",
      "type": "function"
    },
    {
      "constant": true,
      "inputs": [],
      "name": "teamsReward",
      "outputs": [
        {
          "name": "",
          "type": "uint256"
        }
      ],
      "payable": false,
      "stateMutability": "view",
      "type": "function"
    },
    {
      "constant": false,
      "inputs": [
        {
          "name": "_founder1",
          "type": "address"
        },
        {
          "name": "_founder2",
          "type": "address"
        },
        {
          "name": "_founder3",
          "type": "address"
        },
        {
          "name": "_team",
          "type": "address"
        },
        {
          "name": "_bountyOwner",
          "type": "address"
        },
        {
          "name": "_escrow",
          "type": "address"
        }
      ],
      "name": "init",
      "outputs": [],
      "payable": false,
      "stateMutability": "nonpayable",
      "type": "function"
    },
    {
      "constant": true,
      "inputs": [],
      "name": "bountyOwner",
      "outputs": [
        {
          "name": "",
          "type": "address"
        }
      ],
      "payable": false,
      "stateMutability": "view",
      "type": "function"
    },
    {
      "constant": true,
      "inputs": [],
      "name": "icoStoppedManually",
      "outputs": [
        {
          "name": "",
          "type": "bool"
        }
      ],
      "payable": false,
      "stateMutability": "view",
      "type": "function"
    },
    {
      "constant": true,
      "inputs": [],
      "name": "defaultFoundersRewardTime",
      "outputs": [
        {
          "name": "",
          "type": "uint256"
        }
      ],
      "payable": false,
      "stateMutability": "view",
      "type": "function"
    },
    {
      "constant": true,
      "inputs": [],
      "name": "minIcoTokenLimit",
      "outputs": [
        {
          "name": "",
          "type": "uint256"
        }
      ],
      "payable": false,
      "stateMutability": "view",
      "type": "function"
    },
    {
      "constant": true,
      "inputs": [
        {
          "name": "",
          "type": "uint256"
        }
      ],
      "name": "tokenSupplies",
      "outputs": [
        {
          "name": "",
          "type": "uint256"
        }
      ],
      "payable": false,
      "stateMutability": "view",
      "type": "function"
    },
    {
      "constant": false,
      "inputs": [
        {
          "name": "_newIcoManager",
          "type": "address"
        }
      ],
      "name": "setNewManager",
      "outputs": [],
      "payable": false,
      "stateMutability": "nonpayable",
      "type": "function"
    },
    {
      "constant": true,
      "inputs": [],
      "name": "soldTokensOnIco",
      "outputs": [
        {
          "name": "",
          "type": "uint256"
        }
      ],
      "payable": false,
      "stateMutability": "view",
      "type": "function"
    },
    {
      "constant": false,
      "inputs": [],
      "name": "setStateMigrated",
      "outputs": [],
      "payable": false,
      "stateMutability": "nonpayable",
      "type": "function"
    },
    {
      "constant": true,
      "inputs": [],
      "name": "escrow",
      "outputs": [
        {
          "name": "",
          "type": "address"
        }
      ],
      "payable": false,
      "stateMutability": "view",
      "type": "function"
    },
    {
      "constant": false,
      "inputs": [
        {
          "name": "_account",
          "type": "address"
        }
      ],
      "name": "importTokens",
      "outputs": [],
      "payable": false,
      "stateMutability": "nonpayable",
      "type": "function"
    },
    {
      "constant": false,
      "inputs": [
        {
          "name": "_newTokenImporter",
          "type": "address"
        }
      ],
      "name": "setNewTokenImporter",
      "outputs": [],
      "payable": false,
      "stateMutability": "nonpayable",
      "type": "function"
    },
    {
      "constant": true,
      "inputs": [
        {
          "name": "",
          "type": "uint256"
        }
      ],
      "name": "tokenPrices",
      "outputs": [
        {
          "name": "",
          "type": "uint256"
        }
      ],
      "payable": false,
      "stateMutability": "view",
      "type": "function"
    },
    {
      "constant": true,
      "inputs": [],
      "name": "defaultIcoDeadline",
      "outputs": [
        {
          "name": "",
          "type": "uint256"
        }
      ],
      "payable": false,
      "stateMutability": "view",
      "type": "function"
    },
    {
      "constant": true,
      "inputs": [],
      "name": "founder3",
      "outputs": [
        {
          "name": "",
          "type": "address"
        }
      ],
      "payable": false,
      "stateMutability": "view",
      "type": "function"
    },
    {
      "inputs": [
        {
          "name": "_icoManager",
          "type": "address"
        },
        {
          "name": "_preIcoToken",
          "type": "address"
        },
        {
          "name": "_icoStart",
          "type": "uint256"
        },
        {
          "name": "_icoDeadline",
          "type": "uint256"
        },
        {
          "name": "_foundersRewardTime",
          "type": "uint256"
        }
      ],
      "payable": false,
      "stateMutability": "nonpayable",
      "type": "constructor"
    },
    {
      "payable": true,
      "stateMutability": "payable",
      "type": "fallback"
    },
    {
      "anonymous": false,
      "inputs": [
        {
          "indexed": false,
          "name": "buyer",
          "type": "address"
        },
        {
          "indexed": false,
          "name": "value",
          "type": "uint256"
        },
        {
          "indexed": false,
          "name": "amount",
          "type": "uint256"
        }
      ],
      "name": "BuyTokens",
      "type": "event"
    },
    {
      "anonymous": false,
      "inputs": [],
      "name": "WithdrawEther",
      "type": "event"
    },
    {
      "anonymous": false,
      "inputs": [],
      "name": "StopIcoManually",
      "type": "event"
    },
    {
      "anonymous": false,
      "inputs": [
        {
          "indexed": false,
          "name": "founder1Reward",
          "type": "uint256"
        },
        {
          "indexed": false,
          "name": "founder2Reward",
          "type": "uint256"
        },
        {
          "indexed": false,
          "name": "founder3Reward",
          "type": "uint256"
        }
      ],
      "name": "SendTokensToFounders",
      "type": "event"
    },
    {
      "anonymous": false,
      "inputs": [
        {
          "indexed": false,
          "name": "account",
          "type": "address"
        }
      ],
      "name": "ReturnFundsFor",
      "type": "event"
    }
  ],
  "bytecode": "0x60606040526000600460006101000a81548173ffffffffffffffffffffffffffffffffffffffff021916908373ffffffffffffffffffffffffffffffffffffffff1602179055506359baedd0600a556359e3cc50600b55635aa98d50600c556000600d556000600e55610e38600f55670de0b6b3a7640000630a22cf9002601055610ddd601155670de0b6b3a764000063062ebb2002601255610d82601355670de0b6b3a76400006305fac1e602601455610d27601555670de0b6b3a76400006303994be3026016556000601960006101000a81548160ff0219169083151502179055506000601960016101000a81548160ff0219169083151502179055506000601960026101000a81548160ff0219169083151502179055506000601960036101000a81548160ff02191690831515021790555034156200014057600080fd5b60405160a08062003d8c8339810160405280805190602001909190805190602001909190805190602001909190805190602001909190805190602001909190505060008473ffffffffffffffffffffffffffffffffffffffff1614151515620001a557fe5b60008573ffffffffffffffffffffffffffffffffffffffff1614151515620001c957fe5b30620001d46200048e565b808273ffffffffffffffffffffffffffffffffffffffff1673ffffffffffffffffffffffffffffffffffffffff168152602001915050604051809103906000f08015156200022157600080fd5b6000806101000a81548173ffffffffffffffffffffffffffffffffffffffff021916908373ffffffffffffffffffffffffffffffffffffffff16021790555084600360006101000a81548173ffffffffffffffffffffffffffffffffffffffff021916908373ffffffffffffffffffffffffffffffffffffffff16021790555083600160006101000a81548173ffffffffffffffffffffffffffffffffffffffff021916908373ffffffffffffffffffffffffffffffffffffffff160217905550600083141515620002f55782600a819055505b600082141515620003085781600b819055505b6000811415156200031b5780600c819055505b601780548060010182816200033191906200049f565b91600052602060002090016000600f5490919091505550601780548060010182816200035e91906200049f565b9160005260206000209001600060115490919091505550601780548060010182816200038b91906200049f565b916000526020600020900160006013549091909150555060178054806001018281620003b891906200049f565b916000526020600020900160006015549091909150555060188054806001018281620003e591906200049f565b9160005260206000209001600060105490919091505550601880548060010182816200041291906200049f565b9160005260206000209001600060125490919091505550601880548060010182816200043f91906200049f565b9160005260206000209001600060145490919091505550601880548060010182816200046c91906200049f565b91600052602060002090016000601654909190915055505050505050620004f6565b6040516110008062002d8c83390190565b815481835581811511620004c957818360005260206000209182019101620004c89190620004ce565b5b505050565b620004f391905b80821115620004ef576000816000905550600101620004d5565b5090565b90565b61288680620005066000396000f3006060604052600436106101ee576000357c0100000000000000000000000000000000000000000000000000000000900463ffffffff16806308dd14fc146102315780630a0209d01461025a5780630c823abe146102835780630d1118ce146102ac578063116b556b146102ee578063158ef93e1461034357806327e235e31461037057806327e7c023146103bd5780632c678c64146103d2578063319df3bf146103ff57806333cf3ca0146104545780634c6ebbbe1461047d578063636fa3c6146104a6578063681d52de146104fb5780636a0d3450146105505780637362377b1461057d5780637a1ab407146105925780637b274afc146105bb5780637d61de37146105d05780637dfbdf6d146105f9578063806ba6d614610632578063809a812c14610687578063827037db146106dc57806385f2aef21461070557806388bb0c731461075a57806399e133f9146107835780639db069d814610857578063a0579801146108ac578063a19db682146108d9578063b083752414610902578063c0c819691461092b578063d30f945a14610962578063dd09de331461099b578063de01ec28146109c4578063e2fdcc17146109d9578063e3ba339814610a2e578063e3dd164e14610a67578063e5afe3e614610aa0578063f85f3b7f14610ad7578063fb38ec9414610b00575b601960039054906101000a900460ff1615801561020d5750600a544210155b801561021b5750600b544211155b151561022657600080fd5b61022f33610b55565b005b341561023c57600080fd5b610244610dcb565b6040518082815260200191505060405180910390f35b341561026557600080fd5b61026d610dd3565b6040518082815260200191505060405180910390f35b341561028e57600080fd5b610296610de2565b6040518082815260200191505060405180910390f35b34156102b757600080fd5b6102ec600480803573ffffffffffffffffffffffffffffffffffffffff16906020019091908035906020019091905050610de8565b005b34156102f957600080fd5b610301610f3b565b604051808273ffffffffffffffffffffffffffffffffffffffff1673ffffffffffffffffffffffffffffffffffffffff16815260200191505060405180910390f35b341561034e57600080fd5b610356610f61565b604051808215151515815260200191505060405180910390f35b341561037b57600080fd5b6103a7600480803573ffffffffffffffffffffffffffffffffffffffff16906020019091905050610f74565b6040518082815260200191505060405180910390f35b34156103c857600080fd5b6103d0610f8c565b005b34156103dd57600080fd5b6103e56113ec565b604051808215151515815260200191505060405180910390f35b341561040a57600080fd5b6104126113ff565b604051808273ffffffffffffffffffffffffffffffffffffffff1673ffffffffffffffffffffffffffffffffffffffff16815260200191505060405180910390f35b341561045f57600080fd5b610467611425565b6040518082815260200191505060405180910390f35b341561048857600080fd5b61049061142b565b6040518082815260200191505060405180910390f35b34156104b157600080fd5b6104b961143d565b604051808273ffffffffffffffffffffffffffffffffffffffff1673ffffffffffffffffffffffffffffffffffffffff16815260200191505060405180910390f35b341561050657600080fd5b61050e611463565b604051808273ffffffffffffffffffffffffffffffffffffffff1673ffffffffffffffffffffffffffffffffffffffff16815260200191505060405180910390f35b341561055b57600080fd5b610563611489565b604051808215151515815260200191505060405180910390f35b341561058857600080fd5b61059061149c565b005b341561059d57600080fd5b6105a5611641565b6040518082815260200191505060405180910390f35b34156105c657600080fd5b6105ce611650565b005b34156105db57600080fd5b6105e36116f5565b6040518082815260200191505060405180910390f35b341561060457600080fd5b610630600480803573ffffffffffffffffffffffffffffffffffffffff169060200190919050506116fb565b005b341561063d57600080fd5b610645611992565b604051808273ffffffffffffffffffffffffffffffffffffffff1673ffffffffffffffffffffffffffffffffffffffff16815260200191505060405180910390f35b341561069257600080fd5b61069a6119b8565b604051808273ffffffffffffffffffffffffffffffffffffffff1673ffffffffffffffffffffffffffffffffffffffff16815260200191505060405180910390f35b34156106e757600080fd5b6106ef6119dd565b6040518082815260200191505060405180910390f35b341561071057600080fd5b6107186119e3565b604051808273ffffffffffffffffffffffffffffffffffffffff1673ffffffffffffffffffffffffffffffffffffffff16815260200191505060405180910390f35b341561076557600080fd5b61076d611a09565b6040518082815260200191505060405180910390f35b341561078e57600080fd5b610855600480803573ffffffffffffffffffffffffffffffffffffffff1690602001909190803573ffffffffffffffffffffffffffffffffffffffff1690602001909190803573ffffffffffffffffffffffffffffffffffffffff1690602001909190803573ffffffffffffffffffffffffffffffffffffffff1690602001909190803573ffffffffffffffffffffffffffffffffffffffff1690602001909190803573ffffffffffffffffffffffffffffffffffffffff16906020019091905050611a18565b005b341561086257600080fd5b61086a611f10565b604051808273ffffffffffffffffffffffffffffffffffffffff1673ffffffffffffffffffffffffffffffffffffffff16815260200191505060405180910390f35b34156108b757600080fd5b6108bf611f36565b604051808215151515815260200191505060405180910390f35b34156108e457600080fd5b6108ec611f49565b6040518082815260200191505060405180910390f35b341561090d57600080fd5b610915611f51565b6040518082815260200191505060405180910390f35b341561093657600080fd5b61094c6004808035906020019091905050611f63565b6040518082815260200191505060405180910390f35b341561096d57600080fd5b610999600480803573ffffffffffffffffffffffffffffffffffffffff16906020019091905050611f87565b005b34156109a657600080fd5b6109ae61204a565b6040518082815260200191505060405180910390f35b34156109cf57600080fd5b6109d7612050565b005b34156109e457600080fd5b6109ec6120c9565b604051808273ffffffffffffffffffffffffffffffffffffffff1673ffffffffffffffffffffffffffffffffffffffff16815260200191505060405180910390f35b3415610a3957600080fd5b610a65600480803573ffffffffffffffffffffffffffffffffffffffff169060200190919050506120ef565b005b3415610a7257600080fd5b610a9e600480803573ffffffffffffffffffffffffffffffffffffffff16906020019091905050612465565b005b3415610aab57600080fd5b610ac16004808035906020019091905050612505565b6040518082815260200191505060405180910390f35b3415610ae257600080fd5b610aea612529565b6040518082815260200191505060405180910390f35b3415610b0b57600080fd5b610b13612531565b604051808273ffffffffffffffffffffffffffffffffffffffff1673ffffffffffffffffffffffffffffffffffffffff16815260200191505060405180910390f35b6000808273ffffffffffffffffffffffffffffffffffffffff1614151515610b7957fe5b600034111515610b8857600080fd5b670de0b6b3a76400006319e5987902600e54101515610ba657600080fd5b610baf34612557565b9050670de0b6b3a76400006319e5987902610bcc600e54836126b3565b11151515610bd657fe5b610bdf816126d1565b610beb600e54826126b3565b600e819055506000809054906101000a900473ffffffffffffffffffffffffffffffffffffffff1673ffffffffffffffffffffffffffffffffffffffff1663f11b9fc883836040518363ffffffff167c0100000000000000000000000000000000000000000000000000000000028152600401808373ffffffffffffffffffffffffffffffffffffffff1673ffffffffffffffffffffffffffffffffffffffff16815260200182815260200192505050600060405180830381600087803b1515610cb457600080fd5b6102c65a03f11515610cc557600080fd5b505050610d11601a60008473ffffffffffffffffffffffffffffffffffffffff1673ffffffffffffffffffffffffffffffffffffffff16815260200190815260200160002054346126b3565b601a60008473ffffffffffffffffffffffffffffffffffffffff1673ffffffffffffffffffffffffffffffffffffffff168152602001908152602001600020819055507f0a37b72bb67eee30e09084cf386f8a17817c57f620c3ab95fb25d6a20356ec77823483604051808473ffffffffffffffffffffffffffffffffffffffff1673ffffffffffffffffffffffffffffffffffffffff168152602001838152602001828152602001935050505060405180910390a15050565b6359baedd081565b6a0af22f34cec5cd87eba1a081565b600d5481565b600360009054906101000a900473ffffffffffffffffffffffffffffffffffffffff1673ffffffffffffffffffffffffffffffffffffffff163373ffffffffffffffffffffffffffffffffffffffff16141515610e4457600080fd5b601960019054906101000a900460ff16151515610e6057600080fd5b6000809054906101000a900473ffffffffffffffffffffffffffffffffffffffff1673ffffffffffffffffffffffffffffffffffffffff16630d1118ce83836040518363ffffffff167c0100000000000000000000000000000000000000000000000000000000028152600401808373ffffffffffffffffffffffffffffffffffffffff1673ffffffffffffffffffffffffffffffffffffffff16815260200182815260200192505050600060405180830381600087803b1515610f2357600080fd5b6102c65a03f11515610f3457600080fd5b5050505050565b600560009054906101000a900473ffffffffffffffffffffffffffffffffffffffff1681565b601960009054906101000a900460ff1681565b601a6020528060005260406000206000915090505481565b6000806000806000600360009054906101000a900473ffffffffffffffffffffffffffffffffffffffff1673ffffffffffffffffffffffffffffffffffffffff163373ffffffffffffffffffffffffffffffffffffffff16141515610ff057600080fd5b601960009054906101000a900460ff16151561100b57600080fd5b601960029054906101000a900460ff1615801561102a5750600c544210155b151561103557600080fd5b61105a61104f600e546a0af22f34cec5cd87eba1a06126b3565b6103e861032d6127ae565b9450611069856001600a6127ae565b935061107884602b60646127ae565b925061108784602b60646127ae565b915061109684600e60646127ae565b90506000809054906101000a900473ffffffffffffffffffffffffffffffffffffffff1673ffffffffffffffffffffffffffffffffffffffff1663f11b9fc8600560009054906101000a900473ffffffffffffffffffffffffffffffffffffffff16856040518363ffffffff167c0100000000000000000000000000000000000000000000000000000000028152600401808373ffffffffffffffffffffffffffffffffffffffff1673ffffffffffffffffffffffffffffffffffffffff16815260200182815260200192505050600060405180830381600087803b151561117d57600080fd5b6102c65a03f1151561118e57600080fd5b5050506000809054906101000a900473ffffffffffffffffffffffffffffffffffffffff1673ffffffffffffffffffffffffffffffffffffffff1663f11b9fc8600660009054906101000a900473ffffffffffffffffffffffffffffffffffffffff16846040518363ffffffff167c0100000000000000000000000000000000000000000000000000000000028152600401808373ffffffffffffffffffffffffffffffffffffffff1673ffffffffffffffffffffffffffffffffffffffff16815260200182815260200192505050600060405180830381600087803b151561127657600080fd5b6102c65a03f1151561128757600080fd5b5050506000809054906101000a900473ffffffffffffffffffffffffffffffffffffffff1673ffffffffffffffffffffffffffffffffffffffff1663f11b9fc8600760009054906101000a900473ffffffffffffffffffffffffffffffffffffffff16836040518363ffffffff167c0100000000000000000000000000000000000000000000000000000000028152600401808373ffffffffffffffffffffffffffffffffffffffff1673ffffffffffffffffffffffffffffffffffffffff16815260200182815260200192505050600060405180830381600087803b151561136f57600080fd5b6102c65a03f1151561138057600080fd5b5050507f36ad6e464cd6d7160304df0eb54bdf17c4f1e8a9ddc9ed94938fae529ac88c1283838360405180848152602001838152602001828152602001935050505060405180910390a16001601960026101000a81548160ff0219169083151502179055505050505050565b601960019054906101000a900460ff1681565b600360009054906101000a900473ffffffffffffffffffffffffffffffffffffffff1681565b600b5481565b670de0b6b3a76400006319e598790281565b600160009054906101000a900473ffffffffffffffffffffffffffffffffffffffff1681565b600460009054906101000a900473ffffffffffffffffffffffffffffffffffffffff1681565b601960029054906101000a900460ff1681565b670de0b6b3a7640000630112a88002600e541015806114bc5750600b5442115b806114d35750601960039054906101000a900460ff165b15156114de57600080fd5b670de0b6b3a7640000630112a88002600e5410151561163557601960009054906101000a900460ff16151561150f57fe5b60003073ffffffffffffffffffffffffffffffffffffffff163111151561153257fe5b600360009054906101000a900473ffffffffffffffffffffffffffffffffffffffff1673ffffffffffffffffffffffffffffffffffffffff163373ffffffffffffffffffffffffffffffffffffffff1614151561158b57fe5b600260009054906101000a900473ffffffffffffffffffffffffffffffffffffffff1673ffffffffffffffffffffffffffffffffffffffff166108fc3073ffffffffffffffffffffffffffffffffffffffff16319081150290604051600060405180830381858888f19350505050151561160457600080fd5b7f18ee1b9f03c782081d77fbeef56556de7e56e0a698cd4c98827718898d590f4760405160405180910390a161163f565b61163e336116fb565b5b565b6a07be6b6f69ebdf9463f00081565b600360009054906101000a900473ffffffffffffffffffffffffffffffffffffffff1673ffffffffffffffffffffffffffffffffffffffff163373ffffffffffffffffffffffffffffffffffffffff161415156116ac57600080fd5b6001601960036101000a81548160ff0219169083151502179055507f609669eb8341b074254d30befca4d168e482fbad94beb437e40f57139b9dd70760405160405180910390a1565b600c5481565b670de0b6b3a7640000630112a88002600e5410158061171b5750600b5442115b806117325750601960039054906101000a900460ff165b151561173d57600080fd5b3073ffffffffffffffffffffffffffffffffffffffff163373ffffffffffffffffffffffffffffffffffffffff1614806117c45750600360009054906101000a900473ffffffffffffffffffffffffffffffffffffffff1673ffffffffffffffffffffffffffffffffffffffff163373ffffffffffffffffffffffffffffffffffffffff16145b806117fa57508073ffffffffffffffffffffffffffffffffffffffff163373ffffffffffffffffffffffffffffffffffffffff16145b151561180257fe5b670de0b6b3a7640000630112a88002600e5410151561181d57fe5b6000601a60008373ffffffffffffffffffffffffffffffffffffffff1673ffffffffffffffffffffffffffffffffffffffff1681526020019081526020016000205411151561186857fe5b8073ffffffffffffffffffffffffffffffffffffffff166108fc601a60008473ffffffffffffffffffffffffffffffffffffffff1673ffffffffffffffffffffffffffffffffffffffff168152602001908152602001600020549081150290604051600060405180830381858888f1935050505015156118e757600080fd5b6000601a60008373ffffffffffffffffffffffffffffffffffffffff1673ffffffffffffffffffffffffffffffffffffffff168152602001908152602001600020819055507f420d4f35a6c31f27ba2d478b734271cf34b6afb064317b4ac7f72e1fb67ce5eb81604051808273ffffffffffffffffffffffffffffffffffffffff1673ffffffffffffffffffffffffffffffffffffffff16815260200191505060405180910390a150565b600660009054906101000a900473ffffffffffffffffffffffffffffffffffffffff1681565b6000809054906101000a900473ffffffffffffffffffffffffffffffffffffffff1681565b600a5481565b600860009054906101000a900473ffffffffffffffffffffffffffffffffffffffff1681565b6a1fe2e78e86f86d5cf0980081565b600360009054906101000a900473ffffffffffffffffffffffffffffffffffffffff1673ffffffffffffffffffffffffffffffffffffffff163373ffffffffffffffffffffffffffffffffffffffff16141515611a7457600080fd5b601960009054906101000a900460ff16151515611a8d57fe5b60008673ffffffffffffffffffffffffffffffffffffffff1614151515611ab057fe5b60008573ffffffffffffffffffffffffffffffffffffffff1614151515611ad357fe5b60008473ffffffffffffffffffffffffffffffffffffffff1614151515611af657fe5b60008373ffffffffffffffffffffffffffffffffffffffff1614151515611b1957fe5b60008273ffffffffffffffffffffffffffffffffffffffff1614151515611b3c57fe5b60008173ffffffffffffffffffffffffffffffffffffffff1614151515611b5f57fe5b85600560006101000a81548173ffffffffffffffffffffffffffffffffffffffff021916908373ffffffffffffffffffffffffffffffffffffffff16021790555084600660006101000a81548173ffffffffffffffffffffffffffffffffffffffff021916908373ffffffffffffffffffffffffffffffffffffffff16021790555083600760006101000a81548173ffffffffffffffffffffffffffffffffffffffff021916908373ffffffffffffffffffffffffffffffffffffffff16021790555082600860006101000a81548173ffffffffffffffffffffffffffffffffffffffff021916908373ffffffffffffffffffffffffffffffffffffffff16021790555081600960006101000a81548173ffffffffffffffffffffffffffffffffffffffff021916908373ffffffffffffffffffffffffffffffffffffffff16021790555080600260006101000a81548173ffffffffffffffffffffffffffffffffffffffff021916908373ffffffffffffffffffffffffffffffffffffffff1602179055506000809054906101000a900473ffffffffffffffffffffffffffffffffffffffff1673ffffffffffffffffffffffffffffffffffffffff1663f11b9fc8600860009054906101000a900473ffffffffffffffffffffffffffffffffffffffff166a1fe2e78e86f86d5cf098006040518363ffffffff167c0100000000000000000000000000000000000000000000000000000000028152600401808373ffffffffffffffffffffffffffffffffffffffff1673ffffffffffffffffffffffffffffffffffffffff16815260200182815260200192505050600060405180830381600087803b1515611dd557600080fd5b6102c65a03f11515611de657600080fd5b5050506000809054906101000a900473ffffffffffffffffffffffffffffffffffffffff1673ffffffffffffffffffffffffffffffffffffffff1663f11b9fc8600960009054906101000a900473ffffffffffffffffffffffffffffffffffffffff166a07be6b6f69ebdf9463f0006040518363ffffffff167c0100000000000000000000000000000000000000000000000000000000028152600401808373ffffffffffffffffffffffffffffffffffffffff1673ffffffffffffffffffffffffffffffffffffffff16815260200182815260200192505050600060405180830381600087803b1515611ed957600080fd5b6102c65a03f11515611eea57600080fd5b5050506001601960006101000a81548160ff021916908315150217905550505050505050565b600960009054906101000a900473ffffffffffffffffffffffffffffffffffffffff1681565b601960039054906101000a900460ff1681565b635aa98d5081565b670de0b6b3a7640000630112a8800281565b601881815481101515611f7257fe5b90600052602060002090016000915090505481565b600360009054906101000a900473ffffffffffffffffffffffffffffffffffffffff1673ffffffffffffffffffffffffffffffffffffffff163373ffffffffffffffffffffffffffffffffffffffff16141515611fe357600080fd5b60008173ffffffffffffffffffffffffffffffffffffffff161415151561200657fe5b80600360006101000a81548173ffffffffffffffffffffffffffffffffffffffff021916908373ffffffffffffffffffffffffffffffffffffffff16021790555050565b600e5481565b600360009054906101000a900473ffffffffffffffffffffffffffffffffffffffff1673ffffffffffffffffffffffffffffffffffffffff163373ffffffffffffffffffffffffffffffffffffffff161415156120ac57600080fd5b6001601960016101000a81548160ff021916908315150217905550565b600260009054906101000a900473ffffffffffffffffffffffffffffffffffffffff1681565b6000600460009054906101000a900473ffffffffffffffffffffffffffffffffffffffff1673ffffffffffffffffffffffffffffffffffffffff163373ffffffffffffffffffffffffffffffffffffffff16148061219a5750600360009054906101000a900473ffffffffffffffffffffffffffffffffffffffff1673ffffffffffffffffffffffffffffffffffffffff163373ffffffffffffffffffffffffffffffffffffffff16145b806121d057508173ffffffffffffffffffffffffffffffffffffffff163373ffffffffffffffffffffffffffffffffffffffff16145b15156121db57600080fd5b601b60008373ffffffffffffffffffffffffffffffffffffffff1673ffffffffffffffffffffffffffffffffffffffff16815260200190815260200160002060009054906101000a900460ff1615151561223457600080fd5b600160009054906101000a900473ffffffffffffffffffffffffffffffffffffffff1673ffffffffffffffffffffffffffffffffffffffff166370a08231836000604051602001526040518263ffffffff167c0100000000000000000000000000000000000000000000000000000000028152600401808273ffffffffffffffffffffffffffffffffffffffff1673ffffffffffffffffffffffffffffffffffffffff168152602001915050602060405180830381600087803b15156122f957600080fd5b6102c65a03f1151561230a57600080fd5b5050506040518051905090506000811115612409576000809054906101000a900473ffffffffffffffffffffffffffffffffffffffff1673ffffffffffffffffffffffffffffffffffffffff1663f11b9fc883836040518363ffffffff167c0100000000000000000000000000000000000000000000000000000000028152600401808373ffffffffffffffffffffffffffffffffffffffff1673ffffffffffffffffffffffffffffffffffffffff16815260200182815260200192505050600060405180830381600087803b15156123e257600080fd5b6102c65a03f115156123f357600080fd5b505050612402600d54826126b3565b600d819055505b6001601b60008473ffffffffffffffffffffffffffffffffffffffff1673ffffffffffffffffffffffffffffffffffffffff16815260200190815260200160002060006101000a81548160ff0219169083151502179055505050565b600360009054906101000a900473ffffffffffffffffffffffffffffffffffffffff1673ffffffffffffffffffffffffffffffffffffffff163373ffffffffffffffffffffffffffffffffffffffff161415156124c157600080fd5b80600460006101000a81548173ffffffffffffffffffffffffffffffffffffffff021916908373ffffffffffffffffffffffffffffffffffffffff16021790555050565b60178181548110151561251457fe5b90600052602060002090016000915090505481565b6359e3cc5081565b600760009054906101000a900473ffffffffffffffffffffffffffffffffffffffff1681565b60008060008060009250600091505b600482101561267557600085141561257d57612675565b600060188381548110151561258e57fe5b90600052602060002090015414156125a557612668565b846017838154811015156125b557fe5b9060005260206000209001540290506018828154811015156125d357fe5b906000526020600020900154811115156125f8576125f183826126b3565b9250612675565b61261c8360188481548110151561260b57fe5b9060005260206000209001546126b3565b92506126658561266060188581548110151561263457fe5b90600052602060002090015460178681548110151561264f57fe5b9060005260206000209001546127cc565b61280e565b94505b8180600101925050612566565b60048214156126a8576126a583866017600381548110151561269357fe5b906000526020600020900154026126b3565b92505b829350505050919050565b60008082840190508381101515156126c757fe5b8091505092915050565b60008090505b60048110156127aa5760008214156126ee576127aa565b816018828154811015156126fe57fe5b90600052602060002090015411156127575761273460188281548110151561272257fe5b9060005260206000209001548361280e565b60188281548110151561274357fe5b9060005260206000209001819055506127aa565b61277b8260188381548110151561276a57fe5b90600052602060002090015461280e565b9150600060188281548110151561278e57fe5b90600052602060002090018190555080806001019150506126d7565b5050565b60006127c36127bd8585612827565b836127cc565b90509392505050565b600080600083141515156127dc57fe5b82848115156127e757fe5b04905082848115156127f557fe5b06818402018414151561280457fe5b8091505092915050565b600082821115151561281c57fe5b818303905092915050565b60008082840290506000841480612848575082848281151561284557fe5b04145b151561285057fe5b80915050929150505600a165627a7a72305820dec8d7ef0f504d6c5e112aec9aa15271d2030928bb4e35f3c319aaab1dcf11d7002960606040526000600360006101000a81548173ffffffffffffffffffffffffffffffffffffffff021916908373ffffffffffffffffffffffffffffffffffffffff160217905550341561005157600080fd5b6040516020806110008339810160405280805190602001909190505060008173ffffffffffffffffffffffffffffffffffffffff161415151561009057fe5b80600360006101000a81548173ffffffffffffffffffffffffffffffffffffffff021916908373ffffffffffffffffffffffffffffffffffffffff16021790555050610f1f806100e16000396000f3006060604052600436106100d0576000357c0100000000000000000000000000000000000000000000000000000000900463ffffffff16806306fdde03146100d5578063095ea7b3146101635780630d1118ce146101bd5780630d7f7eff146101ff57806318160ddd1461020957806319d1997a1461023257806323b872dd1461025b578063313ce567146102d457806370a08231146102fd57806395d89b411461034a578063a9059cbb146103d8578063c66e409514610432578063dd62ed3e14610487578063f11b9fc8146104f3575b600080fd5b34156100e057600080fd5b6100e8610535565b6040518080602001828103825283818151815260200191508051906020019080838360005b8381101561012857808201518184015260208101905061010d565b50505050905090810190601f1680156101555780820380516001836020036101000a031916815260200191505b509250505060405180910390f35b341561016e57600080fd5b6101a3600480803573ffffffffffffffffffffffffffffffffffffffff1690602001909190803590602001909190505061056e565b604051808215151515815260200191505060405180910390f35b34156101c857600080fd5b6101fd600480803573ffffffffffffffffffffffffffffffffffffffff16906020019091908035906020019091905050610660565b005b61020761077c565b005b341561021457600080fd5b61021c61077e565b6040518082815260200191505060405180910390f35b341561023d57600080fd5b610245610784565b6040518082815260200191505060405180910390f35b341561026657600080fd5b6102ba600480803573ffffffffffffffffffffffffffffffffffffffff1690602001909190803573ffffffffffffffffffffffffffffffffffffffff16906020019091908035906020019091905050610794565b604051808215151515815260200191505060405180910390f35b34156102df57600080fd5b6102e7610a8a565b6040518082815260200191505060405180910390f35b341561030857600080fd5b610334600480803573ffffffffffffffffffffffffffffffffffffffff16906020019091905050610a8f565b6040518082815260200191505060405180910390f35b341561035557600080fd5b61035d610ad7565b6040518080602001828103825283818151815260200191508051906020019080838360005b8381101561039d578082015181840152602081019050610382565b50505050905090810190601f1680156103ca5780820380516001836020036101000a031916815260200191505b509250505060405180910390f35b34156103e357600080fd5b610418600480803573ffffffffffffffffffffffffffffffffffffffff16906020019091908035906020019091905050610b10565b604051808215151515815260200191505060405180910390f35b341561043d57600080fd5b610445610cf3565b604051808273ffffffffffffffffffffffffffffffffffffffff1673ffffffffffffffffffffffffffffffffffffffff16815260200191505060405180910390f35b341561049257600080fd5b6104dd600480803573ffffffffffffffffffffffffffffffffffffffff1690602001909190803573ffffffffffffffffffffffffffffffffffffffff16906020019091905050610d19565b6040518082815260200191505060405180910390f35b34156104fe57600080fd5b610533600480803573ffffffffffffffffffffffffffffffffffffffff16906020019091908035906020019091905050610da0565b005b6040805190810160405280600581526020017f494d4d4c4100000000000000000000000000000000000000000000000000000081525081565b600081600160003373ffffffffffffffffffffffffffffffffffffffff1673ffffffffffffffffffffffffffffffffffffffff16815260200190815260200160002060008573ffffffffffffffffffffffffffffffffffffffff1673ffffffffffffffffffffffffffffffffffffffff168152602001908152602001600020819055508273ffffffffffffffffffffffffffffffffffffffff163373ffffffffffffffffffffffffffffffffffffffff167f8c5be1e5ebec7d5bd14f71427d1e84f3dd0314c0f7b2291e5b200ac8c7c3b925846040518082815260200191505060405180910390a36001905092915050565b600360009054906101000a900473ffffffffffffffffffffffffffffffffffffffff1673ffffffffffffffffffffffffffffffffffffffff163373ffffffffffffffffffffffffffffffffffffffff161415156106bc57600080fd5b60008273ffffffffffffffffffffffffffffffffffffffff16141515156106df57fe5b6000811115156106ee57600080fd5b6107366000808473ffffffffffffffffffffffffffffffffffffffff1673ffffffffffffffffffffffffffffffffffffffff1681526020019081526020016000205482610ebc565b6000808473ffffffffffffffffffffffffffffffffffffffff1673ffffffffffffffffffffffffffffffffffffffff168152602001908152602001600020819055505050565b565b60025481565b6b01c784ec1198da7fa60c000081565b6000816000808673ffffffffffffffffffffffffffffffffffffffff1673ffffffffffffffffffffffffffffffffffffffff1681526020019081526020016000205410158015610860575081600160008673ffffffffffffffffffffffffffffffffffffffff1673ffffffffffffffffffffffffffffffffffffffff16815260200190815260200160002060003373ffffffffffffffffffffffffffffffffffffffff1673ffffffffffffffffffffffffffffffffffffffff1681526020019081526020016000205410155b80156108e957506000808473ffffffffffffffffffffffffffffffffffffffff1673ffffffffffffffffffffffffffffffffffffffff16815260200190815260200160002054826000808673ffffffffffffffffffffffffffffffffffffffff1673ffffffffffffffffffffffffffffffffffffffff1681526020019081526020016000205401115b15610a7e57816000808573ffffffffffffffffffffffffffffffffffffffff1673ffffffffffffffffffffffffffffffffffffffff16815260200190815260200160002060008282540192505081905550816000808673ffffffffffffffffffffffffffffffffffffffff1673ffffffffffffffffffffffffffffffffffffffff1681526020019081526020016000206000828254039250508190555081600160008673ffffffffffffffffffffffffffffffffffffffff1673ffffffffffffffffffffffffffffffffffffffff16815260200190815260200160002060003373ffffffffffffffffffffffffffffffffffffffff1673ffffffffffffffffffffffffffffffffffffffff168152602001908152602001600020600082825403925050819055508273ffffffffffffffffffffffffffffffffffffffff168473ffffffffffffffffffffffffffffffffffffffff167fddf252ad1be2c89b69c2b068fc378daa952ba7f163c4a11628f55a4df523b3ef846040518082815260200191505060405180910390a360019050610a83565b600090505b9392505050565b601281565b60008060008373ffffffffffffffffffffffffffffffffffffffff1673ffffffffffffffffffffffffffffffffffffffff168152602001908152602001600020549050919050565b6040805190810160405280600381526020017f494d4c000000000000000000000000000000000000000000000000000000000081525081565b6000816000803373ffffffffffffffffffffffffffffffffffffffff1673ffffffffffffffffffffffffffffffffffffffff1681526020019081526020016000205410158015610bdd57506000808473ffffffffffffffffffffffffffffffffffffffff1673ffffffffffffffffffffffffffffffffffffffff16815260200190815260200160002054826000808673ffffffffffffffffffffffffffffffffffffffff1673ffffffffffffffffffffffffffffffffffffffff1681526020019081526020016000205401115b15610ce857816000803373ffffffffffffffffffffffffffffffffffffffff1673ffffffffffffffffffffffffffffffffffffffff16815260200190815260200160002060008282540392505081905550816000808573ffffffffffffffffffffffffffffffffffffffff1673ffffffffffffffffffffffffffffffffffffffff168152602001908152602001600020600082825401925050819055508273ffffffffffffffffffffffffffffffffffffffff163373ffffffffffffffffffffffffffffffffffffffff167fddf252ad1be2c89b69c2b068fc378daa952ba7f163c4a11628f55a4df523b3ef846040518082815260200191505060405180910390a360019050610ced565b600090505b92915050565b600360009054906101000a900473ffffffffffffffffffffffffffffffffffffffff1681565b6000600160008473ffffffffffffffffffffffffffffffffffffffff1673ffffffffffffffffffffffffffffffffffffffff16815260200190815260200160002060008373ffffffffffffffffffffffffffffffffffffffff1673ffffffffffffffffffffffffffffffffffffffff16815260200190815260200160002054905092915050565b600360009054906101000a900473ffffffffffffffffffffffffffffffffffffffff1673ffffffffffffffffffffffffffffffffffffffff163373ffffffffffffffffffffffffffffffffffffffff16141515610dfc57600080fd5b60008273ffffffffffffffffffffffffffffffffffffffff1614151515610e1f57fe5b600081111515610e2e57600080fd5b610e766000808473ffffffffffffffffffffffffffffffffffffffff1673ffffffffffffffffffffffffffffffffffffffff1681526020019081526020016000205482610ed5565b6000808473ffffffffffffffffffffffffffffffffffffffff1673ffffffffffffffffffffffffffffffffffffffff168152602001908152602001600020819055505050565b6000828211151515610eca57fe5b818303905092915050565b6000808284019050838110151515610ee957fe5b80915050929150505600a165627a7a72305820d55339ba192e1b0408b8a3aff95e225868e15f4abef8195394dd521e2d7b5e950029",
  "source": "pragma solidity ^0.4.15;\n\nimport \"./ImmlaToken.sol\";\n\ncontract ImmlaIco is SafeMath {\n    /*\n     * ICO meta data\n     */\n    ImmlaToken public immlaToken;\n    AbstractToken public preIcoToken;\n\n    // Address of account to which ethers will be tranfered in case of successful ICO\n    address public escrow;\n    // Address of manager\n    address public icoManager;\n    // Address of a account, that will transfer tokens from pre-ICO\n    address public tokenImporter = 0x0;\n    // Addresses of founders, team and bountyOwner\n    address public founder1;\n    address public founder2;\n    address public founder3;\n    address public team;\n    address public bountyOwner;\n    \n    // 38548226,7 IML is reward for team\n    uint public constant teamsReward = 38548226701232220000000000;\n    //  9361712,2 IML is token for bountyOwner\n    uint public constant bountyOwnersTokens = 9361712198870680000000000;\n    \n    // BASE = 10^18\n    uint constant BASE = 1000000000000000000;\n    \n    // 2017.09.14 21:00 UTC or 2017.09.15 0:00 MSK\n    uint public constant defaultIcoStart = 1505422800;\n    // ICO start time\n    uint public icoStart = defaultIcoStart;\n    \n    // 2017.10.15 21:00 UTC or 2017.10.16 0:00 MSK\n    uint public constant defaultIcoDeadline = 1508101200;\n    // ICO end time\n    uint public  icoDeadline = defaultIcoDeadline;\n    \n    // 2018.03.14 21:00 UTC or 2018.03.15 0:00 MSK\n    uint public constant defaultFoundersRewardTime = 1521061200;\n    // founders' reward time\n    uint public foundersRewardTime = defaultFoundersRewardTime;\n    \n    // Min limit of tokens is 18 000 000 IML\n    uint public constant minIcoTokenLimit = 18000000 * BASE;\n    // Max limit of tokens is 434 477 177 IML\n    uint public constant maxIcoTokenLimit = 434477177 * BASE;\n    \n    // Amount of imported tokens from pre-ICO\n    uint public importedTokens = 0;\n    // Amount of sold tokens on ICO\n    uint public soldTokensOnIco = 0;\n    // Amount of issued tokens on pre-ICO = 13232941,7 IML\n    uint public constant soldTokensOnPreIco = 13232941687168431951684000;\n    \n    // There are 170053520 tokens in stage 1\n    // 1 ETH = 3640 IML\n    uint tokenPrice1 = 3640;\n    uint tokenSupply1 = 170053520 * BASE;\n    \n    // There are 103725856 tokens in stage 2\n    // 1 ETH = 3549 IML\n    uint tokenPrice2 = 3549;\n    uint tokenSupply2 = 103725856 * BASE;\n    \n    // There are 100319718 tokens in stage 3\n    // 1 ETH = 3458 IML\n    uint tokenPrice3 = 3458;\n    uint tokenSupply3 = 100319718 * BASE;\n    \n    // There are 60378083 tokens in stage 4\n    // 1 ETH = 3367 IML\n    uint tokenPrice4 = 3367;\n    uint tokenSupply4 = 60378083 * BASE;\n    \n    // Token's prices in stages in array\n    uint[] public tokenPrices;\n    // Token's remaining amounts in stages in array\n    uint[] public tokenSupplies;\n    \n    // Check if manager can be setted\n    bool public initialized = false;\n    // If flag migrated=false, token can be burned\n    bool public migrated = false;\n    // Tokens to founders can be sent only if sentTokensToFounders == false and time > foundersRewardTime\n    bool public sentTokensToFounders = false;\n    // If stopICO is called, then ICO \n    bool public icoStoppedManually = false;\n    \n    // mapping of ether balances info\n    mapping (address => uint) public balances;\n    \n    /*\n     * Events\n     */\n    \n    event BuyTokens(address buyer, uint value, uint amount);\n    event WithdrawEther();\n    event StopIcoManually();\n    event SendTokensToFounders(uint founder1Reward, uint founder2Reward, uint founder3Reward);\n    event ReturnFundsFor(address account);\n    \n    /*\n     * Modifiers\n     */\n    \n    modifier whenInitialized() {\n        // only when contract is initialized\n        require(initialized);\n        _;\n    } \n    \n    modifier onlyManager() {\n        // only ICO manager can do this action\n        require(msg.sender == icoManager);\n        _;\n    }\n    \n    modifier onIcoRunning() {\n        // Checks, if ICO is running and has not been stopped\n        require(!icoStoppedManually && now >= icoStart && now <= icoDeadline);\n        _;\n    }\n    \n    modifier onGoalAchievedOrDeadline() {\n        // Checks if amount of sold tokens >= min limit or deadline is reached\n        require(soldTokensOnIco >= minIcoTokenLimit || now > icoDeadline || icoStoppedManually);\n        _;\n    }\n    \n    modifier onIcoStopped() {\n        // Checks if ICO was stopped or deadline is reached\n        require(icoStoppedManually || now > icoDeadline);\n        _;\n    }\n    \n    modifier notMigrated() {\n        // Checks if base can be migrated\n        require(!migrated);\n        _;\n    }\n    \n    /// @dev Constructor of ICO. Requires address of icoManager,\n    /// address of preIcoToken, time of start ICO (or zero),\n    /// time of ICO deadline (or zero), founders' reward time (or zero)\n    /// @param _icoManager Address of ICO manager\n    /// @param _preIcoToken Address of pre-ICO contract\n    /// @param _icoStart Timestamp of ICO start (if equals 0, sets defaultIcoStart)\n    /// @param _icoDeadline Timestamp of ICO deadline (if equals 0, sets defaultIcoDeadline)\n    /// @param _foundersRewardTime Timestamp of founders rewarding time \n    /// (if equals 0, sets defaultFoundersRewardTime)\n    function ImmlaIco(address _icoManager, address _preIcoToken, \n        uint _icoStart, uint _icoDeadline, uint _foundersRewardTime) {\n        assert(_preIcoToken != 0x0);\n        assert(_icoManager != 0x0);\n        \n        immlaToken = new ImmlaToken(this);\n        icoManager = _icoManager;\n        preIcoToken = AbstractToken(_preIcoToken);\n        \n        if (_icoStart != 0) {\n            icoStart = _icoStart;\n        }\n        if (_icoDeadline != 0) {\n            icoDeadline = _icoDeadline;\n        }\n        if (_foundersRewardTime != 0) {\n            foundersRewardTime = _foundersRewardTime;\n        }\n        \n        // tokenPrices and tokenSupplies arrays initialisation\n        tokenPrices.push(tokenPrice1);\n        tokenPrices.push(tokenPrice2);\n        tokenPrices.push(tokenPrice3);\n        tokenPrices.push(tokenPrice4);\n        \n        tokenSupplies.push(tokenSupply1);\n        tokenSupplies.push(tokenSupply2);\n        tokenSupplies.push(tokenSupply3);\n        tokenSupplies.push(tokenSupply4);\n    }\n    \n    /// @dev Initialises addresses of team, founders, tokens owner, escrow.\n    /// Initialises balances of team and tokens owner\n    /// @param _founder1 Address of founder 1\n    /// @param _founder2 Address of founder 2\n    /// @param _founder3 Address of founder 3\n    /// @param _team Address of team\n    /// @param _bountyOwner Address of bounty owner\n    /// @param _escrow Address of escrow\n    function init(\n        address _founder1, address _founder2, address _founder3, \n        address _team, address _bountyOwner, address _escrow) onlyManager {\n        assert(!initialized);\n        assert(_founder1 != 0x0);\n        assert(_founder2 != 0x0);\n        assert(_founder3 != 0x0);\n        assert(_team != 0x0);\n        assert(_bountyOwner != 0x0);\n        assert(_escrow != 0x0);\n        \n        founder1 = _founder1;\n        founder2 = _founder2;\n        founder3 = _founder3;\n        team = _team;\n        bountyOwner = _bountyOwner;\n        escrow = _escrow;\n        \n        immlaToken.emitTokens(team, teamsReward);\n        immlaToken.emitTokens(bountyOwner, bountyOwnersTokens);\n        \n        initialized = true;\n    }\n    \n    /// @dev Sets new manager. Only manager can do it\n    /// @param _newIcoManager Address of new ICO manager\n    function setNewManager(address _newIcoManager) onlyManager {\n        assert(_newIcoManager != 0x0);\n        \n        icoManager = _newIcoManager;\n    }\n    \n    /// @dev Sets new token importer. Only manager can do it\n    /// @param _newTokenImporter Address of token importer\n    function setNewTokenImporter(address _newTokenImporter) onlyManager {\n        tokenImporter = _newTokenImporter;\n    } \n    \n    // saves info if account's tokens were imported from pre-ICO\n    mapping (address => bool) private importedFromPreIco;\n    /// @dev Imports account's tokens from pre-ICO. It can be done only by user, ICO manager or token importer\n    /// @param _account Address of account which tokens will be imported\n    function importTokens(address _account) {\n        // only tokens holder or manager or tokenImporter can do migration\n        require(msg.sender == tokenImporter || msg.sender == icoManager || msg.sender == _account);\n        require(!importedFromPreIco[_account]);\n        \n        uint preIcoBalance = preIcoToken.balanceOf(_account);\n        if (preIcoBalance > 0) {\n            immlaToken.emitTokens(_account, preIcoBalance);\n            importedTokens = add(importedTokens, preIcoBalance);\n        }\n        \n        importedFromPreIco[_account] = true;\n    }\n    \n    /// @dev Stops ICO manually. Only manager can do it\n    function stopIco() onlyManager /* onGoalAchievedOrDeadline */ {\n        icoStoppedManually = true;\n        StopIcoManually();\n    }\n    \n    /// @dev If ICO is successful, sends funds to escrow (Only manager can do it). If ICO is failed, sends funds to caller (Anyone can do it)\n    function withdrawEther() onGoalAchievedOrDeadline {\n        if (soldTokensOnIco >= minIcoTokenLimit) {\n            assert(initialized);\n            assert(this.balance > 0);\n            assert(msg.sender == icoManager);\n            \n            escrow.transfer(this.balance);\n            WithdrawEther();\n        } \n        else {\n            returnFundsFor(msg.sender);\n        }\n    }\n    \n    /// @dev Returns funds to funder if ICO is unsuccessful. Dont removes IMMLA balance. Can be called only by manager or contract \n    /// or user for himself\n    /// @param _account Address of funder\n    function returnFundsFor(address _account) onGoalAchievedOrDeadline {\n        assert(msg.sender == address(this) || msg.sender == icoManager || msg.sender == _account);\n        assert(soldTokensOnIco < minIcoTokenLimit);\n        assert(balances[_account] > 0);\n        \n        _account.transfer(balances[_account]);\n        balances[_account] = 0;\n        \n        ReturnFundsFor(_account);\n    }\n    \n    /// @dev count tokens that can be sold with amount of money. Can be called only by contract\n    /// @param _weis Amount of weis\n    function countTokens(uint _weis) private returns(uint) { \n        uint result = 0;\n        uint stage;\n        for (stage = 0; stage < 4; stage++) {\n            if (_weis == 0) {\n                break;\n            }\n            if (tokenSupplies[stage] == 0) {\n                continue;\n            }\n            uint maxTokenAmount = tokenPrices[stage] * _weis;\n            if (maxTokenAmount <= tokenSupplies[stage]) {\n                result = add(result, maxTokenAmount);\n                break;\n            }\n            result = add(result, tokenSupplies[stage]);\n            _weis = sub(_weis, div(tokenSupplies[stage], tokenPrices[stage]));\n        }\n        \n        if (stage == 4) {\n            result = add(result, tokenPrices[3] * _weis);\n        }\n        \n        return result;\n    }\n    \n    /// @dev Invalidates _amount tokens. Can be called only by contract\n    /// @param _amount Amount of tokens\n    function removeTokens(uint _amount) private {\n        for (uint i = 0; i < 4; i++) {\n            if (_amount == 0) {\n                break;\n            }\n            if (tokenSupplies[i] > _amount) {\n                tokenSupplies[i] = sub(tokenSupplies[i], _amount);\n                break;\n            }\n            _amount = sub(_amount, tokenSupplies[i]);\n            tokenSupplies[i] = 0;\n        }\n    }\n    \n    /// @dev Buys quantity of tokens for the amount of sent ethers.\n    /// @param _buyer Address of account which will receive tokens\n    function buyTokens(address _buyer) private {\n        assert(_buyer != 0x0);\n        require(msg.value > 0);\n        require(soldTokensOnIco < maxIcoTokenLimit);\n        \n        uint boughtTokens = countTokens(msg.value);\n        assert(add(soldTokensOnIco, boughtTokens) <= maxIcoTokenLimit);\n        \n        removeTokens(boughtTokens);\n        soldTokensOnIco = add(soldTokensOnIco, boughtTokens);\n        immlaToken.emitTokens(_buyer, boughtTokens);\n        \n        balances[_buyer] = add(balances[_buyer], msg.value);\n        \n        BuyTokens(_buyer, msg.value, boughtTokens);\n    }\n    \n    /// @dev Fall back function ~50k-100k gas\n    function () payable onIcoRunning {\n        buyTokens(msg.sender);\n    }\n    \n    /// @dev Burn tokens from accounts only in state \"not migrated\". Only manager can do it\n    /// @param _from Address of account \n    function burnTokens(address _from, uint _value) onlyManager notMigrated {\n        immlaToken.burnTokens(_from, _value);\n    }\n    \n    /// @dev Set state \"migrated\". Only manager can do it \n    function setStateMigrated() onlyManager {\n        migrated = true;\n    }\n    \n    /// @dev Send tokens to founders. Can be sent only after immlaToken.rewardTime() (2018.03.15 0:00 UTC)\n    /// Sends 43% * 10% of all tokens to founder 1\n    /// Sends 43% * 10% of all tokens to founder 2\n    /// Sends 14% * 10% of all tokens to founder 3\n    function sendTokensToFounders() onlyManager whenInitialized {\n        require(!sentTokensToFounders && now >= foundersRewardTime);\n        \n        // soldTokensOnPreIco + soldTokensOnIco is ~81.3% of tokens \n        uint totalCountOfTokens = mulByFraction(add(soldTokensOnIco, soldTokensOnPreIco), 1000, 813);\n        uint totalRewardToFounders = mulByFraction(totalCountOfTokens, 1, 10);\n        \n        uint founder1Reward = mulByFraction(totalRewardToFounders, 43, 100);\n        uint founder2Reward = mulByFraction(totalRewardToFounders, 43, 100);\n        uint founder3Reward = mulByFraction(totalRewardToFounders, 14, 100);\n        immlaToken.emitTokens(founder1, founder1Reward);\n        immlaToken.emitTokens(founder2, founder2Reward);\n        immlaToken.emitTokens(founder3, founder3Reward);\n        SendTokensToFounders(founder1Reward, founder2Reward, founder3Reward);\n        sentTokensToFounders = true;\n    }\n}\n",
  "sourcePath": "C:\\SmartContract\\contracts\\ImmlaIco.sol",
  "compiler": {
    "name": "solc",
    "version": "0.4.18+commit.9cf6e910.Emscripten.clang"
  },
  "schemaVersion": "1.0.1",
  "updatedAt": "2017-12-15T17:23:38.419Z"
}