{
  "contractName": "Importer5",
  "abi": [
    {
      "constant": true,
      "inputs": [],
      "name": "ico",
      "outputs": [
        {
          "name": "",
          "type": "address"
        }
      ],
      "payable": false,
      "stateMutability": "view",
      "type": "function"
    },
    {
      "constant": true,
      "inputs": [],
      "name": "owner",
      "outputs": [
        {
          "name": "",
          "type": "address"
        }
      ],
      "payable": false,
      "stateMutability": "view",
      "type": "function"
    },
    {
      "constant": false,
      "inputs": [
        {
          "name": "_immlaIco",
          "type": "address"
        }
      ],
      "name": "importTokens",
      "outputs": [],
      "payable": false,
      "stateMutability": "nonpayable",
      "type": "function"
    }
  ],
  "bytecode": "0x6060604052336000806101000a81548173ffffffffffffffffffffffffffffffffffffffff021916908373ffffffffffffffffffffffffffffffffffffffff160217905550612d13806100536000396000f300606060405260043610610057576000357c0100000000000000000000000000000000000000000000000000000000900463ffffffff1680635d4522011461005c5780638da5cb5b146100b1578063e3ba339814610106575b600080fd5b341561006757600080fd5b61006f61013f565b604051808273ffffffffffffffffffffffffffffffffffffffff1673ffffffffffffffffffffffffffffffffffffffff16815260200191505060405180910390f35b34156100bc57600080fd5b6100c4610165565b604051808273ffffffffffffffffffffffffffffffffffffffff1673ffffffffffffffffffffffffffffffffffffffff16815260200191505060405180910390f35b341561011157600080fd5b61013d600480803573ffffffffffffffffffffffffffffffffffffffff1690602001909190505061018a565b005b600160009054906101000a900473ffffffffffffffffffffffffffffffffffffffff1681565b6000809054906101000a900473ffffffffffffffffffffffffffffffffffffffff1681565b3373ffffffffffffffffffffffffffffffffffffffff166000809054906101000a900473ffffffffffffffffffffffffffffffffffffffff1673ffffffffffffffffffffffffffffffffffffffff161415156101e257fe5b80600160006101000a81548173ffffffffffffffffffffffffffffffffffffffff021916908373ffffffffffffffffffffffffffffffffffffffff1602179055503073ffffffffffffffffffffffffffffffffffffffff16600160009054906101000a900473ffffffffffffffffffffffffffffffffffffffff1673ffffffffffffffffffffffffffffffffffffffff1663681d52de6000604051602001526040518163ffffffff167c0100000000000000000000000000000000000000000000000000000000028152600401602060405180830381600087803b15156102c857600080fd5b6102c65a03f115156102d957600080fd5b5050506040518051905073ffffffffffffffffffffffffffffffffffffffff1614151561030257fe5b61030a61030d565b50565b600160009054906101000a900473ffffffffffffffffffffffffffffffffffffffff1673ffffffffffffffffffffffffffffffffffffffff1663e3ba339873114331b4f2813d7636db06e012f5f6a2385dff806040518263ffffffff167c0100000000000000000000000000000000000000000000000000000000028152600401808273ffffffffffffffffffffffffffffffffffffffff168152602001915050600060405180830381600087803b15156103c757600080fd5b6102c65a03f115156103d857600080fd5b505050600160009054906101000a900473ffffffffffffffffffffffffffffffffffffffff1673ffffffffffffffffffffffffffffffffffffffff1663e3ba339873ca8f1d4b1ef5051698644fc970168c97149b263b6040518263ffffffff167c0100000000000000000000000000000000000000000000000000000000028152600401808273ffffffffffffffffffffffffffffffffffffffff168152602001915050600060405180830381600087803b151561049557600080fd5b6102c65a03f115156104a657600080fd5b505050600160009054906101000a900473ffffffffffffffffffffffffffffffffffffffff1673ffffffffffffffffffffffffffffffffffffffff1663e3ba339873f7dde0e382c8789641a2dfbc31ea0c15b9a100776040518263ffffffff167c0100000000000000000000000000000000000000000000000000000000028152600401808273ffffffffffffffffffffffffffffffffffffffff168152602001915050600060405180830381600087803b151561056357600080fd5b6102c65a03f1151561057457600080fd5b505050600160009054906101000a900473ffffffffffffffffffffffffffffffffffffffff1673ffffffffffffffffffffffffffffffffffffffff1663e3ba339873c29a667c2cb3c1de51a2b6c2936438db279754046040518263ffffffff167c0100000000000000000000000000000000000000000000000000000000028152600401808273ffffffffffffffffffffffffffffffffffffffff168152602001915050600060405180830381600087803b151561063157600080fd5b6102c65a03f1151561064257600080fd5b505050600160009054906101000a900473ffffffffffffffffffffffffffffffffffffffff1673ffffffffffffffffffffffffffffffffffffffff1663e3ba339873aa8c03e04b121511858d88be7a1b2f5a2d70f6ac6040518263ffffffff167c0100000000000000000000000000000000000000000000000000000000028152600401808273ffffffffffffffffffffffffffffffffffffffff168152602001915050600060405180830381600087803b15156106ff57600080fd5b6102c65a03f1151561071057600080fd5b505050600160009054906101000a900473ffffffffffffffffffffffffffffffffffffffff1673ffffffffffffffffffffffffffffffffffffffff1663e3ba3398730fd4761d51a415190c367c4f542e06f2f3e9e8f66040518263ffffffff167c0100000000000000000000000000000000000000000000000000000000028152600401808273ffffffffffffffffffffffffffffffffffffffff168152602001915050600060405180830381600087803b15156107cd57600080fd5b6102c65a03f115156107de57600080fd5b505050600160009054906101000a900473ffffffffffffffffffffffffffffffffffffffff1673ffffffffffffffffffffffffffffffffffffffff1663e3ba339873ef67a6208097869ce4dc69667d6f391a7620c8016040518263ffffffff167c0100000000000000000000000000000000000000000000000000000000028152600401808273ffffffffffffffffffffffffffffffffffffffff168152602001915050600060405180830381600087803b151561089b57600080fd5b6102c65a03f115156108ac57600080fd5b505050600160009054906101000a900473ffffffffffffffffffffffffffffffffffffffff1673ffffffffffffffffffffffffffffffffffffffff1663e3ba3398739052af73bed5b9f592f140caf7d17c69fac0cd326040518263ffffffff167c0100000000000000000000000000000000000000000000000000000000028152600401808273ffffffffffffffffffffffffffffffffffffffff168152602001915050600060405180830381600087803b151561096957600080fd5b6102c65a03f1151561097a57600080fd5b505050600160009054906101000a900473ffffffffffffffffffffffffffffffffffffffff1673ffffffffffffffffffffffffffffffffffffffff1663e3ba3398737ed1e469fcb3ee19c0366d829e291451be638e596040518263ffffffff167c0100000000000000000000000000000000000000000000000000000000028152600401808273ffffffffffffffffffffffffffffffffffffffff168152602001915050600060405180830381600087803b1515610a3757600080fd5b6102c65a03f11515610a4857600080fd5b505050600160009054906101000a900473ffffffffffffffffffffffffffffffffffffffff1673ffffffffffffffffffffffffffffffffffffffff1663e3ba3398731e1931f4ed3bef0fc24c1a6b7dc7933711e8739d6040518263ffffffff167c0100000000000000000000000000000000000000000000000000000000028152600401808273ffffffffffffffffffffffffffffffffffffffff168152602001915050600060405180830381600087803b1515610b0557600080fd5b6102c65a03f11515610b1657600080fd5b505050600160009054906101000a900473ffffffffffffffffffffffffffffffffffffffff1673ffffffffffffffffffffffffffffffffffffffff1663e3ba339873e91064b4c8d1e9aa611cce2eed5ef8484a31f8326040518263ffffffff167c0100000000000000000000000000000000000000000000000000000000028152600401808273ffffffffffffffffffffffffffffffffffffffff168152602001915050600060405180830381600087803b1515610bd357600080fd5b6102c65a03f11515610be457600080fd5b505050600160009054906101000a900473ffffffffffffffffffffffffffffffffffffffff1673ffffffffffffffffffffffffffffffffffffffff1663e3ba339873282c1cfb4f29324c7e4d0a3bb89a28ddfeddfd456040518263ffffffff167c0100000000000000000000000000000000000000000000000000000000028152600401808273ffffffffffffffffffffffffffffffffffffffff168152602001915050600060405180830381600087803b1515610ca157600080fd5b6102c65a03f11515610cb257600080fd5b505050600160009054906101000a900473ffffffffffffffffffffffffffffffffffffffff1673ffffffffffffffffffffffffffffffffffffffff1663e3ba3398734c22ce036879bea829955676137b1e2dec8c57ba6040518263ffffffff167c0100000000000000000000000000000000000000000000000000000000028152600401808273ffffffffffffffffffffffffffffffffffffffff168152602001915050600060405180830381600087803b1515610d6f57600080fd5b6102c65a03f11515610d8057600080fd5b505050600160009054906101000a900473ffffffffffffffffffffffffffffffffffffffff1673ffffffffffffffffffffffffffffffffffffffff1663e3ba33987378805795dc090222db3f7b00f1c1325eec40a44d6040518263ffffffff167c0100000000000000000000000000000000000000000000000000000000028152600401808273ffffffffffffffffffffffffffffffffffffffff168152602001915050600060405180830381600087803b1515610e3d57600080fd5b6102c65a03f11515610e4e57600080fd5b505050600160009054906101000a900473ffffffffffffffffffffffffffffffffffffffff1673ffffffffffffffffffffffffffffffffffffffff1663e3ba3398731a62a9d02e0556188bcdbc14c4d1320361dbf6de6040518263ffffffff167c0100000000000000000000000000000000000000000000000000000000028152600401808273ffffffffffffffffffffffffffffffffffffffff168152602001915050600060405180830381600087803b1515610f0b57600080fd5b6102c65a03f11515610f1c57600080fd5b505050600160009054906101000a900473ffffffffffffffffffffffffffffffffffffffff1673ffffffffffffffffffffffffffffffffffffffff1663e3ba33987377483497fe1972cb07792ade636984a81826efd86040518263ffffffff167c0100000000000000000000000000000000000000000000000000000000028152600401808273ffffffffffffffffffffffffffffffffffffffff168152602001915050600060405180830381600087803b1515610fd957600080fd5b6102c65a03f11515610fea57600080fd5b505050600160009054906101000a900473ffffffffffffffffffffffffffffffffffffffff1673ffffffffffffffffffffffffffffffffffffffff1663e3ba3398734c462a2353537143fdd800ed811092a67722d6416040518263ffffffff167c0100000000000000000000000000000000000000000000000000000000028152600401808273ffffffffffffffffffffffffffffffffffffffff168152602001915050600060405180830381600087803b15156110a757600080fd5b6102c65a03f115156110b857600080fd5b505050600160009054906101000a900473ffffffffffffffffffffffffffffffffffffffff1673ffffffffffffffffffffffffffffffffffffffff1663e3ba339873443be6c82a74691b0b3f8f3c6575d2d80602ea8e6040518263ffffffff167c0100000000000000000000000000000000000000000000000000000000028152600401808273ffffffffffffffffffffffffffffffffffffffff168152602001915050600060405180830381600087803b151561117557600080fd5b6102c65a03f1151561118657600080fd5b505050600160009054906101000a900473ffffffffffffffffffffffffffffffffffffffff1673ffffffffffffffffffffffffffffffffffffffff1663e3ba3398739a14a2c5d0206a5b15a998a657ecf7ebdb05b8cc6040518263ffffffff167c0100000000000000000000000000000000000000000000000000000000028152600401808273ffffffffffffffffffffffffffffffffffffffff168152602001915050600060405180830381600087803b151561124357600080fd5b6102c65a03f1151561125457600080fd5b505050600160009054906101000a900473ffffffffffffffffffffffffffffffffffffffff1673ffffffffffffffffffffffffffffffffffffffff1663e3ba3398731cecb887f964e000d5950fdfc44ec4d91e288b416040518263ffffffff167c0100000000000000000000000000000000000000000000000000000000028152600401808273ffffffffffffffffffffffffffffffffffffffff168152602001915050600060405180830381600087803b151561131157600080fd5b6102c65a03f1151561132257600080fd5b505050600160009054906101000a900473ffffffffffffffffffffffffffffffffffffffff1673ffffffffffffffffffffffffffffffffffffffff1663e3ba3398735bb7fc3b16af14e4b1e37a9fad4df7eb7fadb9926040518263ffffffff167c0100000000000000000000000000000000000000000000000000000000028152600401808273ffffffffffffffffffffffffffffffffffffffff168152602001915050600060405180830381600087803b15156113df57600080fd5b6102c65a03f115156113f057600080fd5b505050600160009054906101000a900473ffffffffffffffffffffffffffffffffffffffff1673ffffffffffffffffffffffffffffffffffffffff1663e3ba339873d908f80aba091f8eb3135e7876d51b5b1a7bb1886040518263ffffffff167c0100000000000000000000000000000000000000000000000000000000028152600401808273ffffffffffffffffffffffffffffffffffffffff168152602001915050600060405180830381600087803b15156114ad57600080fd5b6102c65a03f115156114be57600080fd5b505050600160009054906101000a900473ffffffffffffffffffffffffffffffffffffffff1673ffffffffffffffffffffffffffffffffffffffff1663e3ba339873b9d38ad5cc92a97b2dad986ef866b74c56d8fbc46040518263ffffffff167c0100000000000000000000000000000000000000000000000000000000028152600401808273ffffffffffffffffffffffffffffffffffffffff168152602001915050600060405180830381600087803b151561157b57600080fd5b6102c65a03f1151561158c57600080fd5b505050600160009054906101000a900473ffffffffffffffffffffffffffffffffffffffff1673ffffffffffffffffffffffffffffffffffffffff1663e3ba339873cae91b10df2fdced66a942d4e52af9da368245c36040518263ffffffff167c0100000000000000000000000000000000000000000000000000000000028152600401808273ffffffffffffffffffffffffffffffffffffffff168152602001915050600060405180830381600087803b151561164957600080fd5b6102c65a03f1151561165a57600080fd5b505050600160009054906101000a900473ffffffffffffffffffffffffffffffffffffffff1673ffffffffffffffffffffffffffffffffffffffff1663e3ba339873568ad255195be51e7c0aee6f5e800e3fd009e7f76040518263ffffffff167c0100000000000000000000000000000000000000000000000000000000028152600401808273ffffffffffffffffffffffffffffffffffffffff168152602001915050600060405180830381600087803b151561171757600080fd5b6102c65a03f1151561172857600080fd5b505050600160009054906101000a900473ffffffffffffffffffffffffffffffffffffffff1673ffffffffffffffffffffffffffffffffffffffff1663e3ba339873317066a7d0e3e429acb39b143e78af8152890f6b6040518263ffffffff167c0100000000000000000000000000000000000000000000000000000000028152600401808273ffffffffffffffffffffffffffffffffffffffff168152602001915050600060405180830381600087803b15156117e557600080fd5b6102c65a03f115156117f657600080fd5b505050600160009054906101000a900473ffffffffffffffffffffffffffffffffffffffff1673ffffffffffffffffffffffffffffffffffffffff1663e3ba339873e98318528747a12864e046eb8433f915dd0970f76040518263ffffffff167c0100000000000000000000000000000000000000000000000000000000028152600401808273ffffffffffffffffffffffffffffffffffffffff168152602001915050600060405180830381600087803b15156118b357600080fd5b6102c65a03f115156118c457600080fd5b505050600160009054906101000a900473ffffffffffffffffffffffffffffffffffffffff1673ffffffffffffffffffffffffffffffffffffffff1663e3ba33987322a0e9afb550d1be05d31bf4f1ee2545a37ec9f46040518263ffffffff167c0100000000000000000000000000000000000000000000000000000000028152600401808273ffffffffffffffffffffffffffffffffffffffff168152602001915050600060405180830381600087803b151561198157600080fd5b6102c65a03f1151561199257600080fd5b505050600160009054906101000a900473ffffffffffffffffffffffffffffffffffffffff1673ffffffffffffffffffffffffffffffffffffffff1663e3ba339873e6472fffa8d49edd5b7e0005970b15131d9398466040518263ffffffff167c0100000000000000000000000000000000000000000000000000000000028152600401808273ffffffffffffffffffffffffffffffffffffffff168152602001915050600060405180830381600087803b1515611a4f57600080fd5b6102c65a03f11515611a6057600080fd5b505050600160009054906101000a900473ffffffffffffffffffffffffffffffffffffffff1673ffffffffffffffffffffffffffffffffffffffff1663e3ba339873eeafc52c868811e21e8b955fabf7fd60a4ba38226040518263ffffffff167c0100000000000000000000000000000000000000000000000000000000028152600401808273ffffffffffffffffffffffffffffffffffffffff168152602001915050600060405180830381600087803b1515611b1d57600080fd5b6102c65a03f11515611b2e57600080fd5b505050600160009054906101000a900473ffffffffffffffffffffffffffffffffffffffff1673ffffffffffffffffffffffffffffffffffffffff1663e3ba3398730cf1782053040933187ecd39b7c3f2a5eb63a2ca6040518263ffffffff167c0100000000000000000000000000000000000000000000000000000000028152600401808273ffffffffffffffffffffffffffffffffffffffff168152602001915050600060405180830381600087803b1515611beb57600080fd5b6102c65a03f11515611bfc57600080fd5b505050600160009054906101000a900473ffffffffffffffffffffffffffffffffffffffff1673ffffffffffffffffffffffffffffffffffffffff1663e3ba339873f13278c5de06db7562c3c9e72cf3327cf1e310816040518263ffffffff167c0100000000000000000000000000000000000000000000000000000000028152600401808273ffffffffffffffffffffffffffffffffffffffff168152602001915050600060405180830381600087803b1515611cb957600080fd5b6102c65a03f11515611cca57600080fd5b505050600160009054906101000a900473ffffffffffffffffffffffffffffffffffffffff1673ffffffffffffffffffffffffffffffffffffffff1663e3ba339873d3a0544f3a23a78d31c8ede32d34ef4152e77f0a6040518263ffffffff167c0100000000000000000000000000000000000000000000000000000000028152600401808273ffffffffffffffffffffffffffffffffffffffff168152602001915050600060405180830381600087803b1515611d8757600080fd5b6102c65a03f11515611d9857600080fd5b505050600160009054906101000a900473ffffffffffffffffffffffffffffffffffffffff1673ffffffffffffffffffffffffffffffffffffffff1663e3ba3398737f010ffaeda601a9a42517b09130aad754b65e826040518263ffffffff167c0100000000000000000000000000000000000000000000000000000000028152600401808273ffffffffffffffffffffffffffffffffffffffff168152602001915050600060405180830381600087803b1515611e5557600080fd5b6102c65a03f11515611e6657600080fd5b505050600160009054906101000a900473ffffffffffffffffffffffffffffffffffffffff1673ffffffffffffffffffffffffffffffffffffffff1663e3ba3398730835533b06d9b313a564c9c025d4517c8abf900d6040518263ffffffff167c0100000000000000000000000000000000000000000000000000000000028152600401808273ffffffffffffffffffffffffffffffffffffffff168152602001915050600060405180830381600087803b1515611f2357600080fd5b6102c65a03f11515611f3457600080fd5b505050600160009054906101000a900473ffffffffffffffffffffffffffffffffffffffff1673ffffffffffffffffffffffffffffffffffffffff1663e3ba339873054f77801974c287351c680c926f0928904c20196040518263ffffffff167c0100000000000000000000000000000000000000000000000000000000028152600401808273ffffffffffffffffffffffffffffffffffffffff168152602001915050600060405180830381600087803b1515611ff157600080fd5b6102c65a03f1151561200257600080fd5b505050600160009054906101000a900473ffffffffffffffffffffffffffffffffffffffff1673ffffffffffffffffffffffffffffffffffffffff1663e3ba3398733958bd057afa1d1c5aa986cd6b22f290af9153b86040518263ffffffff167c0100000000000000000000000000000000000000000000000000000000028152600401808273ffffffffffffffffffffffffffffffffffffffff168152602001915050600060405180830381600087803b15156120bf57600080fd5b6102c65a03f115156120d057600080fd5b505050600160009054906101000a900473ffffffffffffffffffffffffffffffffffffffff1673ffffffffffffffffffffffffffffffffffffffff1663e3ba3398735653d53d3a8f237a99fd2aa27b2b39dda403a5486040518263ffffffff167c0100000000000000000000000000000000000000000000000000000000028152600401808273ffffffffffffffffffffffffffffffffffffffff168152602001915050600060405180830381600087803b151561218d57600080fd5b6102c65a03f1151561219e57600080fd5b505050600160009054906101000a900473ffffffffffffffffffffffffffffffffffffffff1673ffffffffffffffffffffffffffffffffffffffff1663e3ba33987355c82751b2b15854db61e37cde6db269e51ab6f16040518263ffffffff167c0100000000000000000000000000000000000000000000000000000000028152600401808273ffffffffffffffffffffffffffffffffffffffff168152602001915050600060405180830381600087803b151561225b57600080fd5b6102c65a03f1151561226c57600080fd5b505050600160009054906101000a900473ffffffffffffffffffffffffffffffffffffffff1673ffffffffffffffffffffffffffffffffffffffff1663e3ba3398733885ce6cdd20a3c5295fd288173fa84c9436be4c6040518263ffffffff167c0100000000000000000000000000000000000000000000000000000000028152600401808273ffffffffffffffffffffffffffffffffffffffff168152602001915050600060405180830381600087803b151561232957600080fd5b6102c65a03f1151561233a57600080fd5b505050600160009054906101000a900473ffffffffffffffffffffffffffffffffffffffff1673ffffffffffffffffffffffffffffffffffffffff1663e3ba339873baa3b46fbac6d3382a1e4fffaa85f4cc8932fc356040518263ffffffff167c0100000000000000000000000000000000000000000000000000000000028152600401808273ffffffffffffffffffffffffffffffffffffffff168152602001915050600060405180830381600087803b15156123f757600080fd5b6102c65a03f1151561240857600080fd5b505050600160009054906101000a900473ffffffffffffffffffffffffffffffffffffffff1673ffffffffffffffffffffffffffffffffffffffff1663e3ba33987322a04f6b2433fd164adf5c7a0c1d4750d9af5a0c6040518263ffffffff167c0100000000000000000000000000000000000000000000000000000000028152600401808273ffffffffffffffffffffffffffffffffffffffff168152602001915050600060405180830381600087803b15156124c557600080fd5b6102c65a03f115156124d657600080fd5b505050600160009054906101000a900473ffffffffffffffffffffffffffffffffffffffff1673ffffffffffffffffffffffffffffffffffffffff1663e3ba339873d3b50894342cf27176b2ee4e4bff938314f6c1326040518263ffffffff167c0100000000000000000000000000000000000000000000000000000000028152600401808273ffffffffffffffffffffffffffffffffffffffff168152602001915050600060405180830381600087803b151561259357600080fd5b6102c65a03f115156125a457600080fd5b505050600160009054906101000a900473ffffffffffffffffffffffffffffffffffffffff1673ffffffffffffffffffffffffffffffffffffffff1663e3ba339873d167ffd468be89f556f80c0eaab244def6e7eda06040518263ffffffff167c0100000000000000000000000000000000000000000000000000000000028152600401808273ffffffffffffffffffffffffffffffffffffffff168152602001915050600060405180830381600087803b151561266157600080fd5b6102c65a03f1151561267257600080fd5b505050600160009054906101000a900473ffffffffffffffffffffffffffffffffffffffff1673ffffffffffffffffffffffffffffffffffffffff1663e3ba33987379e95f5b9679ca97da6823864548b223024f56ff6040518263ffffffff167c0100000000000000000000000000000000000000000000000000000000028152600401808273ffffffffffffffffffffffffffffffffffffffff168152602001915050600060405180830381600087803b151561272f57600080fd5b6102c65a03f1151561274057600080fd5b505050600160009054906101000a900473ffffffffffffffffffffffffffffffffffffffff1673ffffffffffffffffffffffffffffffffffffffff1663e3ba33987374ec465eec889e809258569eb6a525a741cd3ec36040518263ffffffff167c0100000000000000000000000000000000000000000000000000000000028152600401808273ffffffffffffffffffffffffffffffffffffffff168152602001915050600060405180830381600087803b15156127fd57600080fd5b6102c65a03f1151561280e57600080fd5b505050600160009054906101000a900473ffffffffffffffffffffffffffffffffffffffff1673ffffffffffffffffffffffffffffffffffffffff1663e3ba3398735852eba36d92255b0221c3c350372c90aca65e086040518263ffffffff167c0100000000000000000000000000000000000000000000000000000000028152600401808273ffffffffffffffffffffffffffffffffffffffff168152602001915050600060405180830381600087803b15156128cb57600080fd5b6102c65a03f115156128dc57600080fd5b505050600160009054906101000a900473ffffffffffffffffffffffffffffffffffffffff1673ffffffffffffffffffffffffffffffffffffffff1663e3ba3398733e36fdc09d2bb76800223fdb34d4a8a8aa324a916040518263ffffffff167c0100000000000000000000000000000000000000000000000000000000028152600401808273ffffffffffffffffffffffffffffffffffffffff168152602001915050600060405180830381600087803b151561299957600080fd5b6102c65a03f115156129aa57600080fd5b505050600160009054906101000a900473ffffffffffffffffffffffffffffffffffffffff1673ffffffffffffffffffffffffffffffffffffffff1663e3ba339873a77cb52ef8c4e2b227ea63e2178918fd6eab936c6040518263ffffffff167c0100000000000000000000000000000000000000000000000000000000028152600401808273ffffffffffffffffffffffffffffffffffffffff168152602001915050600060405180830381600087803b1515612a6757600080fd5b6102c65a03f11515612a7857600080fd5b505050600160009054906101000a900473ffffffffffffffffffffffffffffffffffffffff1673ffffffffffffffffffffffffffffffffffffffff1663e3ba3398732d569b21e7650c752ea6f98ff491099c7bda82026040518263ffffffff167c0100000000000000000000000000000000000000000000000000000000028152600401808273ffffffffffffffffffffffffffffffffffffffff168152602001915050600060405180830381600087803b1515612b3557600080fd5b6102c65a03f11515612b4657600080fd5b505050600160009054906101000a900473ffffffffffffffffffffffffffffffffffffffff1673ffffffffffffffffffffffffffffffffffffffff1663e3ba339873df4b8646be1670f898e67a8651c30b456afd2b606040518263ffffffff167c0100000000000000000000000000000000000000000000000000000000028152600401808273ffffffffffffffffffffffffffffffffffffffff168152602001915050600060405180830381600087803b1515612c0357600080fd5b6102c65a03f11515612c1457600080fd5b505050600160009054906101000a900473ffffffffffffffffffffffffffffffffffffffff1673ffffffffffffffffffffffffffffffffffffffff1663e3ba339873fc1bb3da2d32eb4606a1baef4da771750de7a51c6040518263ffffffff167c0100000000000000000000000000000000000000000000000000000000028152600401808273ffffffffffffffffffffffffffffffffffffffff168152602001915050600060405180830381600087803b1515612cd157600080fd5b6102c65a03f11515612ce257600080fd5b5050505600a165627a7a723058209622d539deb2dc1b8acfac9f53b1239f6a362afef96ee61059572f56c494966b0029",
  "source": "pragma solidity ^0.4.15;\n\nimport \"./AbstractImporter.sol\";\n\ncontract Importer5 is AbstractImporter {\n    function _import() internal {\n        ico.importTokens(0x114331b4f2813d7636db06e012f5f6a2385dff80);\n        ico.importTokens(0xca8f1d4b1ef5051698644fc970168c97149b263b);\n        ico.importTokens(0xf7dde0e382c8789641a2dfbc31ea0c15b9a10077);\n        ico.importTokens(0xc29a667c2cb3c1de51a2b6c2936438db27975404);\n        ico.importTokens(0xaa8c03e04b121511858d88be7a1b2f5a2d70f6ac);\n        ico.importTokens(0x0fd4761d51a415190c367c4f542e06f2f3e9e8f6);\n        ico.importTokens(0xef67a6208097869ce4dc69667d6f391a7620c801);\n        ico.importTokens(0x9052af73bed5b9f592f140caf7d17c69fac0cd32);\n        ico.importTokens(0x7ed1e469fcb3ee19c0366d829e291451be638e59);\n        ico.importTokens(0x1e1931f4ed3bef0fc24c1a6b7dc7933711e8739d);\n        ico.importTokens(0xe91064b4c8d1e9aa611cce2eed5ef8484a31f832);\n        ico.importTokens(0x282c1cfb4f29324c7e4d0a3bb89a28ddfeddfd45);\n        ico.importTokens(0x4c22ce036879bea829955676137b1e2dec8c57ba);\n        ico.importTokens(0x78805795dc090222db3f7b00f1c1325eec40a44d);\n        ico.importTokens(0x1a62a9d02e0556188bcdbc14c4d1320361dbf6de);\n        ico.importTokens(0x77483497fe1972cb07792ade636984a81826efd8);\n        ico.importTokens(0x4c462a2353537143fdd800ed811092a67722d641);\n        ico.importTokens(0x443be6c82a74691b0b3f8f3c6575d2d80602ea8e);\n        ico.importTokens(0x9a14a2c5d0206a5b15a998a657ecf7ebdb05b8cc);\n        ico.importTokens(0x1cecb887f964e000d5950fdfc44ec4d91e288b41);\n        ico.importTokens(0x5bb7fc3b16af14e4b1e37a9fad4df7eb7fadb992);\n        ico.importTokens(0xd908f80aba091f8eb3135e7876d51b5b1a7bb188);\n        ico.importTokens(0xb9d38ad5cc92a97b2dad986ef866b74c56d8fbc4);\n        ico.importTokens(0xcae91b10df2fdced66a942d4e52af9da368245c3);\n        ico.importTokens(0x568ad255195be51e7c0aee6f5e800e3fd009e7f7);\n        ico.importTokens(0x317066a7d0e3e429acb39b143e78af8152890f6b);\n        ico.importTokens(0xe98318528747a12864e046eb8433f915dd0970f7);\n        ico.importTokens(0x22a0e9afb550d1be05d31bf4f1ee2545a37ec9f4);\n        ico.importTokens(0xe6472fffa8d49edd5b7e0005970b15131d939846);\n        ico.importTokens(0xeeafc52c868811e21e8b955fabf7fd60a4ba3822);\n        ico.importTokens(0x0cf1782053040933187ecd39b7c3f2a5eb63a2ca);\n        ico.importTokens(0xf13278c5de06db7562c3c9e72cf3327cf1e31081);\n        ico.importTokens(0xd3a0544f3a23a78d31c8ede32d34ef4152e77f0a);\n        ico.importTokens(0x7f010ffaeda601a9a42517b09130aad754b65e82);\n        ico.importTokens(0x0835533b06d9b313a564c9c025d4517c8abf900d);\n        ico.importTokens(0x054f77801974c287351c680c926f0928904c2019);\n        ico.importTokens(0x3958bd057afa1d1c5aa986cd6b22f290af9153b8);\n        ico.importTokens(0x5653d53d3a8f237a99fd2aa27b2b39dda403a548);\n        ico.importTokens(0x55c82751b2b15854db61e37cde6db269e51ab6f1);\n        ico.importTokens(0x3885ce6cdd20a3c5295fd288173fa84c9436be4c);\n        ico.importTokens(0xbaa3b46fbac6d3382a1e4fffaa85f4cc8932fc35);\n        ico.importTokens(0x22a04f6b2433fd164adf5c7a0c1d4750d9af5a0c);\n        ico.importTokens(0xd3b50894342cf27176b2ee4e4bff938314f6c132);\n        ico.importTokens(0xd167ffd468be89f556f80c0eaab244def6e7eda0);\n        ico.importTokens(0x79e95f5b9679ca97da6823864548b223024f56ff);\n        ico.importTokens(0x74ec465eec889e809258569eb6a525a741cd3ec3);\n        ico.importTokens(0x5852eba36d92255b0221c3c350372c90aca65e08);\n        ico.importTokens(0x3e36fdc09d2bb76800223fdb34d4a8a8aa324a91);\n        ico.importTokens(0xa77cb52ef8c4e2b227ea63e2178918fd6eab936c);\n        ico.importTokens(0x2d569b21e7650c752ea6f98ff491099c7bda8202);\n        ico.importTokens(0xdf4b8646be1670f898e67a8651c30b456afd2b60);\n        ico.importTokens(0xfc1bb3da2d32eb4606a1baef4da771750de7a51c);\n    }\n}",
  "sourcePath": "C:\\SmartContract\\contracts\\Importer5.sol",
  "compiler": {
    "name": "solc",
    "version": "0.4.18+commit.9cf6e910.Emscripten.clang"
  },
  "schemaVersion": "1.0.1",
  "updatedAt": "2017-12-15T15:30:24.108Z"
}