{
  "contractName": "PreIcoContract",
  "abi": [
    {
      "constant": true,
      "inputs": [
        {
          "name": "_account",
          "type": "address"
        }
      ],
      "name": "balanceOf",
      "outputs": [
        {
          "name": "balance",
          "type": "uint256"
        }
      ],
      "payable": false,
      "stateMutability": "view",
      "type": "function"
    },
    {
      "inputs": [
        {
          "name": "_acc1",
          "type": "address"
        },
        {
          "name": "_value1",
          "type": "uint256"
        },
        {
          "name": "_acc2",
          "type": "address"
        },
        {
          "name": "_value2",
          "type": "uint256"
        }
      ],
      "payable": false,
      "stateMutability": "nonpayable",
      "type": "constructor"
    }
  ],
  "bytecode": "0x6060604052341561000f57600080fd5b6040516080806101e183398101604052808051906020019091908051906020019091908051906020019091908051906020019091905050826000808673ffffffffffffffffffffffffffffffffffffffff1673ffffffffffffffffffffffffffffffffffffffff16815260200190815260200160002081905550806000808473ffffffffffffffffffffffffffffffffffffffff1673ffffffffffffffffffffffffffffffffffffffff1681526020019081526020016000208190555050505050610102806100df6000396000f300606060405260043610603f576000357c0100000000000000000000000000000000000000000000000000000000900463ffffffff16806370a08231146044575b600080fd5b3415604e57600080fd5b6078600480803573ffffffffffffffffffffffffffffffffffffffff16906020019091905050608e565b6040518082815260200191505060405180910390f35b60008060008373ffffffffffffffffffffffffffffffffffffffff1673ffffffffffffffffffffffffffffffffffffffff1681526020019081526020016000205490509190505600a165627a7a7230582043af615592e99533e35063e2a414b1da23a7faec1cc178d067c772d230f82a740029",
  "source": "pragma solidity ^0.4.2;\n\n// only for tests\ncontract PreIcoContract {\n    mapping (address => uint) balances;\n    \n    function balanceOf(address _account) constant returns(uint256 balance) {\n       return balances[_account]; \n    }\n    \n    function PreIcoContract(address _acc1, uint _value1, address _acc2, uint _value2) {\n        balances[_acc1] = _value1;\n        balances[_acc2] = _value2;\n    }\n}",
  "sourcePath": "C:\\SmartContract\\contracts\\PreIcoContract.sol",
  "compiler": {
    "name": "solc",
    "version": "0.4.18+commit.9cf6e910.Emscripten.clang"
  },
  "schemaVersion": "1.0.1",
  "updatedAt": "2017-12-15T17:23:38.422Z"
}