{
  "contractName": "ReturnManager",
  "abi": [
    {
      "constant": false,
      "inputs": [
        {
          "name": "_accounts",
          "type": "address[]"
        }
      ],
      "name": "returnFor",
      "outputs": [],
      "payable": false,
      "stateMutability": "nonpayable",
      "type": "function"
    },
    {
      "constant": true,
      "inputs": [],
      "name": "ico",
      "outputs": [
        {
          "name": "",
          "type": "address"
        }
      ],
      "payable": false,
      "stateMutability": "view",
      "type": "function"
    },
    {
      "constant": true,
      "inputs": [],
      "name": "owner",
      "outputs": [
        {
          "name": "",
          "type": "address"
        }
      ],
      "payable": false,
      "stateMutability": "view",
      "type": "function"
    },
    {
      "constant": false,
      "inputs": [],
      "name": "resetManager",
      "outputs": [],
      "payable": false,
      "stateMutability": "nonpayable",
      "type": "function"
    },
    {
      "inputs": [
        {
          "name": "_ico",
          "type": "address"
        }
      ],
      "payable": false,
      "stateMutability": "nonpayable",
      "type": "constructor"
    }
  ],
  "bytecode": "0x6060604052341561000f57600080fd5b60405160208061050583398101604052808051906020019091905050806000806101000a81548173ffffffffffffffffffffffffffffffffffffffff021916908373ffffffffffffffffffffffffffffffffffffffff16021790555033600160006101000a81548173ffffffffffffffffffffffffffffffffffffffff021916908373ffffffffffffffffffffffffffffffffffffffff16021790555050610449806100bc6000396000f300606060405260043610610062576000357c0100000000000000000000000000000000000000000000000000000000900463ffffffff1680632da91fa2146100675780635d452201146100c15780638da5cb5b14610116578063a432578e1461016b575b600080fd5b341561007257600080fd5b6100bf600480803590602001908201803590602001908080602002602001604051908101604052809392919081815260200183836020028082843782019150505050505091905050610180565b005b34156100cc57600080fd5b6100d4610286565b604051808273ffffffffffffffffffffffffffffffffffffffff1673ffffffffffffffffffffffffffffffffffffffff16815260200191505060405180910390f35b341561012157600080fd5b6101296102ab565b604051808273ffffffffffffffffffffffffffffffffffffffff1673ffffffffffffffffffffffffffffffffffffffff16815260200191505060405180910390f35b341561017657600080fd5b61017e6102d1565b005b60008090505b8151811015610282576000809054906101000a900473ffffffffffffffffffffffffffffffffffffffff1673ffffffffffffffffffffffffffffffffffffffff16637dfbdf6d83838151811015156101da57fe5b906020019060200201516040518263ffffffff167c0100000000000000000000000000000000000000000000000000000000028152600401808273ffffffffffffffffffffffffffffffffffffffff1673ffffffffffffffffffffffffffffffffffffffff168152602001915050600060405180830381600087803b151561026157600080fd5b6102c65a03f1151561027257600080fd5b5050508080600101915050610186565b5050565b6000809054906101000a900473ffffffffffffffffffffffffffffffffffffffff1681565b600160009054906101000a900473ffffffffffffffffffffffffffffffffffffffff1681565b600160009054906101000a900473ffffffffffffffffffffffffffffffffffffffff1673ffffffffffffffffffffffffffffffffffffffff163373ffffffffffffffffffffffffffffffffffffffff1614151561032a57fe5b6000809054906101000a900473ffffffffffffffffffffffffffffffffffffffff1673ffffffffffffffffffffffffffffffffffffffff1663d30f945a600160009054906101000a900473ffffffffffffffffffffffffffffffffffffffff166040518263ffffffff167c0100000000000000000000000000000000000000000000000000000000028152600401808273ffffffffffffffffffffffffffffffffffffffff1673ffffffffffffffffffffffffffffffffffffffff168152602001915050600060405180830381600087803b151561040757600080fd5b6102c65a03f1151561041857600080fd5b5050505600a165627a7a723058208b4bddd5c41845ff7ab68ad4d31682e19ea591d187aac960806c68450469fa2a0029",
  "source": "pragma solidity ^0.4.2;\n\nimport \"./ImmlaIco.sol\";\n\ncontract ReturnManager {\n    ImmlaIco public ico;\n    address public owner;\n    \n    modifier onlyOwner {\n        assert(msg.sender == owner);\n        _;\n    }\n\n    function ReturnManager(address _ico) public {\n        ico = ImmlaIco(_ico);\n        owner = msg.sender;\n    }\n    \n    function resetManager() public onlyOwner {\n        ico.setNewManager(owner);\n    }\n    \n    function returnFor(address[] _accounts) public {\n        for (uint i = 0; i < _accounts.length; i++) {\n            ico.returnFundsFor(_accounts[i]);\n        }\n    }\n}",
  "sourcePath": "C:\\SmartContract\\contracts\\ReturnManager.sol",
  "compiler": {
    "name": "solc",
    "version": "0.4.18+commit.9cf6e910.Emscripten.clang"
  },
  "schemaVersion": "1.0.1",
  "updatedAt": "2017-12-15T17:23:38.423Z"
}